{
  "contractName": "Auction",
  "abi": [
    {
      "constant": true,
      "inputs": [],
      "name": "beneficiary",
      "outputs": [
        {
          "name": "",
          "type": "address"
        }
      ],
      "payable": false,
      "stateMutability": "view",
      "type": "function"
    },
    {
      "constant": true,
      "inputs": [],
      "name": "sku",
      "outputs": [
        {
          "name": "",
          "type": "uint256"
        }
      ],
      "payable": false,
      "stateMutability": "view",
      "type": "function"
    },
    {
      "constant": true,
      "inputs": [],
      "name": "auctionEndVar",
      "outputs": [
        {
          "name": "",
          "type": "uint256"
        }
      ],
      "payable": false,
      "stateMutability": "view",
      "type": "function"
    },
    {
      "constant": true,
      "inputs": [],
      "name": "highestBidder",
      "outputs": [
        {
          "name": "",
          "type": "address"
        }
      ],
      "payable": false,
      "stateMutability": "view",
      "type": "function"
    },
    {
      "constant": true,
      "inputs": [],
      "name": "store",
      "outputs": [
        {
          "name": "",
          "type": "address"
        }
      ],
      "payable": false,
      "stateMutability": "view",
      "type": "function"
    },
    {
      "constant": true,
      "inputs": [],
      "name": "highestBid",
      "outputs": [
        {
          "name": "",
          "type": "uint256"
        }
      ],
      "payable": false,
      "stateMutability": "view",
      "type": "function"
    },
    {
      "inputs": [
        {
          "name": "_biddingTime",
          "type": "uint256"
        },
        {
          "name": "_beneficiary",
          "type": "address"
        },
        {
          "name": "_sku",
          "type": "uint256"
        },
        {
          "name": "_minimumPrice",
          "type": "uint256"
        }
      ],
      "payable": false,
      "stateMutability": "nonpayable",
      "type": "constructor"
    },
    {
      "anonymous": false,
      "inputs": [
        {
          "indexed": false,
          "name": "bidder",
          "type": "address"
        },
        {
          "indexed": false,
          "name": "amount",
          "type": "uint256"
        }
      ],
      "name": "HighestBidIncreased",
      "type": "event"
    },
    {
      "anonymous": false,
      "inputs": [
        {
          "indexed": false,
          "name": "winner",
          "type": "address"
        },
        {
          "indexed": false,
          "name": "amount",
          "type": "uint256"
        }
      ],
      "name": "AuctionEnded",
      "type": "event"
    },
    {
      "constant": false,
      "inputs": [],
      "name": "bid",
      "outputs": [],
      "payable": true,
      "stateMutability": "payable",
      "type": "function"
    },
    {
      "constant": false,
      "inputs": [],
      "name": "withdraw",
      "outputs": [
        {
          "name": "",
          "type": "bool"
        }
      ],
      "payable": false,
      "stateMutability": "nonpayable",
      "type": "function"
    },
    {
      "constant": false,
      "inputs": [],
      "name": "auctionEnd",
      "outputs": [],
      "payable": false,
      "stateMutability": "nonpayable",
      "type": "function"
    }
  ],
  "bytecode": "0x608060405234801561001057600080fd5b506040516080806106b1833981016040908152815160208301519183015160609093015160038054600160a060020a03909416600160a060020a0319948516179055600093909355420160045560029190915560018054909116331790556106348061007d6000396000f3006080604052600436106100985763ffffffff7c01000000000000000000000000000000000000000000000000000000006000350416631998aeef811461009d5780632a24f46c146100a757806338af3eed146100bc5780633ccfd60b146100ed5780634462f40c1461011657806361c7628b1461013d57806391f9015714610152578063975057e714610167578063d57bde791461017c575b600080fd5b6100a5610191565b005b3480156100b357600080fd5b506100a56102d6565b3480156100c857600080fd5b506100d161055f565b60408051600160a060020a039092168252519081900360200190f35b3480156100f957600080fd5b5061010261056e565b604080519115158252519081900360200190f35b34801561012257600080fd5b5061012b6105d8565b60408051918252519081900360200190f35b34801561014957600080fd5b5061012b6105de565b34801561015e57600080fd5b506100d16105e4565b34801561017357600080fd5b506100d16105f3565b34801561018857600080fd5b5061012b610602565b6004544211156101eb576040805160e560020a62461bcd02815260206004820152601660248201527f41756374696f6e20616c726561647920656e6465642e00000000000000000000604482015290519081900360640190fd5b6006543411610244576040805160e560020a62461bcd02815260206004820152601e60248201527f546865726520616c7265616479206973206120686967686572206269642e0000604482015290519081900360640190fd5b6006541561027157600654600554600160a060020a03166000908152600760205260409020805490910190555b6005805473ffffffffffffffffffffffffffffffffffffffff19163390811790915534600681905560408051928352602083019190915280517ff4757a49b326036464bec6fe419a4ae38c8a02ce3e68bf0809674f6aab8ad3009281900390910190a1565b600454421015610330576040805160e560020a62461bcd02815260206004820152601660248201527f41756374696f6e206e6f742079657420656e6465642e00000000000000000000604482015290519081900360640190fd5b60085460ff16156103b1576040805160e560020a62461bcd02815260206004820152602360248201527f61756374696f6e456e642068617320616c7265616479206265656e2063616c6c60448201527f65642e0000000000000000000000000000000000000000000000000000000000606482015290519081900360840190fd5b6006546002541115610433576040805160e560020a62461bcd02815260206004820152602860248201527f61756374696f6e456e6420446964206e6f7420657863656564206d696e696d7560448201527f6d2070726963652e000000000000000000000000000000000000000000000000606482015290519081900360840190fd5b6008805460ff1916600117905560055460065460408051600160a060020a039093168352602083019190915280517fdaec4582d5d9595688c8c98545fdd1c696d41c6aeaeb636737e84ed2f5c00eda9281900390910190a1600354600654604051600160a060020a039092169181156108fc0291906000818181858888f193505050501580156104c7573d6000803e3d6000fd5b5060015460008054600654600554604080517f36bb3a7e00000000000000000000000000000000000000000000000000000000815260048101949094526024840192909252600160a060020a03908116604484015290519316926336bb3a7e9260648084019391929182900301818387803b15801561054557600080fd5b505af1158015610559573d6000803e3d6000fd5b50505050565b600354600160a060020a031681565b33600090815260076020526040812054818111156105cf57336000818152600760205260408082208290555183156108fc0291849190818181858888f1935050505015156105cf5733600090815260076020526040812082905591506105d4565b600191505b5090565b60005481565b60045481565b600554600160a060020a031681565b600154600160a060020a031681565b600654815600a165627a7a723058201867fa22a476028726a6ebff1779bb6cdbe43845052e224b7a14951ba3bba0770029",
  "source": "pragma solidity ^0.4.22;\r\n\r\nimport \"./Store.sol\";\r\n\r\ncontract Auction {\r\n    uint public sku;\r\n    address public store;\r\n    uint minimumPrice;\r\n    \r\n    // Parameters of the auction. Times are either\r\n    // absolute unix timestamps (seconds since 1970-01-01)\r\n    // or time periods in seconds.\r\n    address public beneficiary;\r\n    uint public auctionEndVar;\r\n\r\n    // Current state of the auction.\r\n    address public highestBidder;\r\n    uint public highestBid;\r\n\r\n    // Allowed withdrawals of previous bids\r\n    mapping(address => uint) pendingReturns;\r\n\r\n    // Set to true at the end, disallows any change\r\n    bool ended;\r\n\r\n    // Events that will be fired on changes.\r\n    event HighestBidIncreased(address bidder, uint amount);\r\n    event AuctionEnded(address winner, uint amount);\r\n\r\n    // The following is a so-called natspec comment,\r\n    // recognizable by the three slashes.\r\n    // It will be shown when the user is asked to\r\n    // confirm a transaction.\r\n\r\n    /// Create a simple auction with `_biddingTime`\r\n    /// seconds bidding time on behalf of the\r\n    /// beneficiary address `_beneficiary`.\r\n    constructor(\r\n        uint _biddingTime,\r\n        address _beneficiary,\r\n        uint _sku,\r\n        uint _minimumPrice\r\n    ) public {\r\n        beneficiary = _beneficiary;\r\n        sku = _sku;\r\n        auctionEndVar = block.timestamp + _biddingTime;\r\n        minimumPrice = _minimumPrice;\r\n        store = msg.sender;\r\n    }\r\n\r\n    /// Bid on the auction with the value sent\r\n    /// together with this transaction.\r\n    /// The value will only be refunded if the\r\n    /// auction is not won.\r\n    function bid() public payable {\r\n        // No arguments are necessary, all\r\n        // information is already part of\r\n        // the transaction. The keyword payable\r\n        // is required for the function to\r\n        // be able to receive Ether.\r\n\r\n        // Revert the call if the bidding\r\n        // period is over.\r\n        require(\r\n            block.timestamp <= auctionEndVar,\r\n            \"Auction already ended.\"\r\n        );\r\n\r\n        // If the bid is not higher, send the\r\n        // money back.\r\n        require(\r\n            msg.value > highestBid,\r\n            \"There already is a higher bid.\"\r\n        );\r\n\r\n        if (highestBid != 0) {\r\n            // Sending back the money by simply using\r\n            // highestBidder.send(highestBid) is a security risk\r\n            // because it could execute an untrusted contract.\r\n            // It is always safer to let the recipients\r\n            // withdraw their money themselves.\r\n            pendingReturns[highestBidder] += highestBid;\r\n        }\r\n        highestBidder = msg.sender;\r\n        highestBid = msg.value;\r\n        emit HighestBidIncreased(msg.sender, msg.value);\r\n    }\r\n\r\n    /// Withdraw a bid that was overbid.\r\n    function withdraw() public returns (bool) {\r\n        uint amount = pendingReturns[msg.sender];\r\n        if (amount > 0) {\r\n            // It is important to set this to zero because the recipient\r\n            // can call this function again as part of the receiving call\r\n            // before `send` returns.\r\n            pendingReturns[msg.sender] = 0;\r\n\r\n            if (!msg.sender.send(amount)) {\r\n                // No need to call throw here, just reset the amount owing\r\n                pendingReturns[msg.sender] = amount;\r\n                return false;\r\n            }\r\n        }\r\n        return true;\r\n    }\r\n\r\n    /// End the auction and send the highest bid\r\n    /// to the beneficiary.\r\n    function auctionEnd() public {\r\n        // It is a good guideline to structure functions that interact\r\n        // with other contracts (i.e. they call functions or send Ether)\r\n        // into three phases:\r\n        // 1. checking conditions\r\n        // 2. performing actions (potentially changing conditions)\r\n        // 3. interacting with other contracts\r\n        // If these phases are mixed up, the other contract could call\r\n        // back into the current contract and modify the state or cause\r\n        // effects (ether payout) to be performed multiple times.\r\n        // If functions called internally include interaction with external\r\n        // contracts, they also have to be considered interaction with\r\n        // external contracts.\r\n\r\n        // 1. Conditions\r\n        require(block.timestamp >= auctionEndVar, \"Auction not yet ended.\");\r\n        require(!ended, \"auctionEnd has already been called.\");\r\n        require(minimumPrice <= highestBid, \"auctionEnd Did not exceed minimum price.\");\r\n\r\n        // 2. Effects\r\n        ended = true;\r\n        emit AuctionEnded(highestBidder, highestBid);\r\n\r\n        // 3. Interaction\r\n        beneficiary.transfer(highestBid);\r\n        Store(store).wonItem(sku,highestBid,highestBidder);\r\n    }\r\n}\r\n",
  "sourcePath": "/home/beast/marketplace/contracts/Auction.sol",
  "compiler": {
    "name": "solc",
    "version": "0.4.24+commit.e67f0147.Emscripten.clang"
  },
  "schemaVersion": "2.0.0",
  "updatedAt": "2018-08-24T15:48:33.689Z"
}