{
  "contractName": "Factory",
  "abi": [
    {
      "constant": true,
      "inputs": [
        {
          "name": "",
          "type": "address"
        }
      ],
      "name": "adminStaff",
      "outputs": [
        {
          "name": "",
          "type": "bool"
        }
      ],
      "payable": false,
      "stateMutability": "view",
      "type": "function"
    },
    {
      "constant": true,
      "inputs": [
        {
          "name": "",
          "type": "uint256"
        }
      ],
      "name": "deployedStores",
      "outputs": [
        {
          "name": "",
          "type": "address"
        }
      ],
      "payable": false,
      "stateMutability": "view",
      "type": "function"
    },
    {
      "constant": true,
      "inputs": [
        {
          "name": "",
          "type": "address"
        }
      ],
      "name": "storeAndManagers",
      "outputs": [
        {
          "name": "",
          "type": "address"
        }
      ],
      "payable": false,
      "stateMutability": "view",
      "type": "function"
    },
    {
      "constant": true,
      "inputs": [],
      "name": "manager",
      "outputs": [
        {
          "name": "",
          "type": "address"
        }
      ],
      "payable": false,
      "stateMutability": "view",
      "type": "function"
    },
    {
      "constant": true,
      "inputs": [],
      "name": "refundTime",
      "outputs": [
        {
          "name": "",
          "type": "uint256"
        }
      ],
      "payable": false,
      "stateMutability": "view",
      "type": "function"
    },
    {
      "constant": true,
      "inputs": [
        {
          "name": "",
          "type": "address"
        }
      ],
      "name": "approvedStoreOwner",
      "outputs": [
        {
          "name": "",
          "type": "bool"
        }
      ],
      "payable": false,
      "stateMutability": "view",
      "type": "function"
    },
    {
      "constant": true,
      "inputs": [
        {
          "name": "",
          "type": "uint256"
        }
      ],
      "name": "deployedStoreNames",
      "outputs": [
        {
          "name": "",
          "type": "string"
        }
      ],
      "payable": false,
      "stateMutability": "view",
      "type": "function"
    },
    {
      "constant": true,
      "inputs": [
        {
          "name": "",
          "type": "address"
        }
      ],
      "name": "storeAndOrders",
      "outputs": [
        {
          "name": "",
          "type": "address"
        }
      ],
      "payable": false,
      "stateMutability": "view",
      "type": "function"
    },
    {
      "inputs": [
        {
          "name": "_refundTime",
          "type": "uint256"
        }
      ],
      "payable": false,
      "stateMutability": "nonpayable",
      "type": "constructor"
    },
    {
      "constant": false,
      "inputs": [
        {
          "name": "_name",
          "type": "string"
        }
      ],
      "name": "createStore",
      "outputs": [],
      "payable": false,
      "stateMutability": "nonpayable",
      "type": "function"
    },
    {
      "constant": true,
      "inputs": [],
      "name": "getDeployedStores",
      "outputs": [
        {
          "name": "",
          "type": "address[]"
        }
      ],
      "payable": false,
      "stateMutability": "view",
      "type": "function"
    },
    {
      "constant": true,
      "inputs": [
        {
          "name": "_storeAddress",
          "type": "address"
        }
      ],
      "name": "getOrderFromStore",
      "outputs": [
        {
          "name": "orderAddress",
          "type": "address"
        }
      ],
      "payable": false,
      "stateMutability": "view",
      "type": "function"
    },
    {
      "constant": false,
      "inputs": [
        {
          "name": "_orderId",
          "type": "uint256"
        },
        {
          "name": "_storeAddress",
          "type": "address"
        },
        {
          "name": "_winner",
          "type": "address"
        }
      ],
      "name": "resolveDispute",
      "outputs": [],
      "payable": false,
      "stateMutability": "nonpayable",
      "type": "function"
    },
    {
      "constant": false,
      "inputs": [
        {
          "name": "_storeAddress",
          "type": "address"
        },
        {
          "name": "_newAddress",
          "type": "address"
        }
      ],
      "name": "updateStore",
      "outputs": [],
      "payable": false,
      "stateMutability": "nonpayable",
      "type": "function"
    },
    {
      "constant": false,
      "inputs": [
        {
          "name": "_storeAddress",
          "type": "address"
        },
        {
          "name": "_newAddress",
          "type": "address"
        }
      ],
      "name": "updateOrders",
      "outputs": [],
      "payable": false,
      "stateMutability": "nonpayable",
      "type": "function"
    },
    {
      "constant": false,
      "inputs": [
        {
          "name": "_storeAddress",
          "type": "address"
        },
        {
          "name": "_orderAddress",
          "type": "address"
        },
        {
          "name": "_factoryAddress",
          "type": "address"
        }
      ],
      "name": "updateFactory",
      "outputs": [],
      "payable": false,
      "stateMutability": "nonpayable",
      "type": "function"
    },
    {
      "constant": false,
      "inputs": [
        {
          "name": "_refundTime",
          "type": "uint256"
        }
      ],
      "name": "updateRefundTime",
      "outputs": [],
      "payable": false,
      "stateMutability": "nonpayable",
      "type": "function"
    },
    {
      "constant": false,
      "inputs": [
        {
          "name": "_address",
          "type": "address"
        }
      ],
      "name": "addStoreOwner",
      "outputs": [],
      "payable": false,
      "stateMutability": "nonpayable",
      "type": "function"
    },
    {
      "constant": false,
      "inputs": [
        {
          "name": "_address",
          "type": "address"
        }
      ],
      "name": "delStoreOwner",
      "outputs": [],
      "payable": false,
      "stateMutability": "nonpayable",
      "type": "function"
    },
    {
      "constant": false,
      "inputs": [
        {
          "name": "_address",
          "type": "address"
        }
      ],
      "name": "stopStartWithdrawals",
      "outputs": [],
      "payable": false,
      "stateMutability": "nonpayable",
      "type": "function"
    },
    {
      "constant": false,
      "inputs": [
        {
          "name": "_address",
          "type": "address"
        }
      ],
      "name": "addAdminStaff",
      "outputs": [],
      "payable": false,
      "stateMutability": "nonpayable",
      "type": "function"
    },
    {
      "constant": false,
      "inputs": [
        {
          "name": "_address",
          "type": "address"
        }
      ],
      "name": "delAdminStaff",
      "outputs": [],
      "payable": false,
      "stateMutability": "nonpayable",
      "type": "function"
    }
  ],
  "bytecode": "0x608060405234801561001057600080fd5b50604051602080614cc8833981016040908152905160008054600160a060020a031916339081178255815260016020819052929020805460ff1916909217909155600355614c65806100636000396000f3006080604052600436106101035763ffffffff60e060020a6000350416630fba7c4d811461010857806310c9defc146101455780632d9fd7ae1461017a57806330fa43251461019257806335e182c1146101b35780633d43bbb4146101cd578063454d74cb146101f4578063481c6a751461021b578063485804b41461023057806362eadecc146102515780636553dd9d1461027257806381278b05146102935780639adeb5f1146102b45780639b0ac9b0146102d5578063a69b3f5c146102fc578063b733932a1461031d578063beab352d146103aa578063d0e04fe3146103d4578063d9c509e61461042d578063dfe0db2114610492578063ea1c4466146104b3575b600080fd5b34801561011457600080fd5b50610129600160a060020a03600435166104e0565b60408051600160a060020a039092168252519081900360200190f35b34801561015157600080fd5b50610166600160a060020a03600435166104fe565b604080519115158252519081900360200190f35b34801561018657600080fd5b50610129600435610513565b34801561019e57600080fd5b50610129600160a060020a036004351661053b565b3480156101bf57600080fd5b506101cb600435610556565b005b3480156101d957600080fd5b506101cb600160a060020a03600435811690602435166105b3565b34801561020057600080fd5b506101cb600160a060020a0360043581169060243516610696565b34801561022757600080fd5b50610129610749565b34801561023c57600080fd5b506101cb600160a060020a0360043516610758565b34801561025d57600080fd5b506101cb600160a060020a03600435166107db565b34801561027e57600080fd5b506101cb600160a060020a036004351661088c565b34801561029f57600080fd5b506101cb600160a060020a0360043516610905565b3480156102c057600080fd5b506101cb600160a060020a036004351661098e565b3480156102e157600080fd5b506102ea610a0a565b60408051918252519081900360200190f35b34801561030857600080fd5b50610166600160a060020a0360043516610a10565b34801561032957600080fd5b50610335600435610a25565b6040805160208082528351818301528351919283929083019185019080838360005b8381101561036f578181015183820152602001610357565b50505050905090810190601f16801561039c5780820380516001836020036101000a031916815260200191505b509250505060405180910390f35b3480156103b657600080fd5b506101cb600435600160a060020a0360243581169060443516610acc565b3480156103e057600080fd5b506040805160206004803580820135601f81018490048402850184019095528484526101cb943694929360249392840191908190840183828082843750949750610bbb9650505050505050565b34801561043957600080fd5b50610442610f3a565b60408051602080825283518183015283519192839290830191858101910280838360005b8381101561047e578181015183820152602001610466565b505050509050019250505060405180910390f35b34801561049e57600080fd5b50610129600160a060020a0360043516610f9d565b3480156104bf57600080fd5b506101cb600160a060020a0360043581169060243581169060443516610fb8565b600160a060020a039081166000908152600860205260409020541690565b60016020526000908152604090205460ff1681565b600680548290811061052157fe5b600091825260209091200154600160a060020a0316905081565b600960205260009081526040902054600160a060020a031681565b3360009081526001602052604090205460ff1615156105ae576040805160e560020a62461bcd02815260206004820152600b602482015260008051602062004c1a833981519152604482015290519081900360640190fd5b600355565b3360009081526001602052604090205460ff16151561060b576040805160e560020a62461bcd02815260206004820152600b602482015260008051602062004c1a833981519152604482015290519081900360640190fd5b81600160a060020a03166345c84486826040518263ffffffff1660e060020a0281526004018082600160a060020a0316600160a060020a03168152602001915050602060405180830381600087803b15801561066657600080fd5b505af115801561067a573d6000803e3d6000fd5b505050506040513d602081101561069057600080fd5b50505050565b3360009081526001602052604090205460ff1615156106ee576040805160e560020a62461bcd02815260206004820152600b602482015260008051602062004c1a833981519152604482015290519081900360640190fd5b81600160a060020a0316636559e59a826040518263ffffffff1660e060020a0281526004018082600160a060020a0316600160a060020a03168152602001915050602060405180830381600087803b15801561066657600080fd5b600054600160a060020a031681565b600054600160a060020a031633146107ba576040805160e560020a62461bcd02815260206004820152600d60248201527f436865636b204d414e4147455200000000000000000000000000000000000000604482015290519081900360640190fd5b600160a060020a03166000908152600160205260409020805460ff19169055565b3360009081526001602052604090205460ff161515610833576040805160e560020a62461bcd02815260206004820152600b602482015260008051602062004c1a833981519152604482015290519081900360640190fd5b80600160a060020a0316631385d24c6040518163ffffffff1660e060020a028152600401600060405180830381600087803b15801561087157600080fd5b505af1158015610885573d6000803e3d6000fd5b5050505050565b3360009081526001602052604090205460ff1615156108e4576040805160e560020a62461bcd02815260206004820152600b602482015260008051602062004c1a833981519152604482015290519081900360640190fd5b600160a060020a03166000908152600260205260409020805460ff19169055565b600054600160a060020a03163314610967576040805160e560020a62461bcd02815260206004820152600d60248201527f436865636b204d414e4147455200000000000000000000000000000000000000604482015290519081900360640190fd5b600160a060020a03166000908152600160208190526040909120805460ff19169091179055565b3360009081526001602052604090205460ff1615156109e6576040805160e560020a62461bcd02815260206004820152600b602482015260008051602062004c1a833981519152604482015290519081900360640190fd5b600160a060020a03166000908152600260205260409020805460ff19166001179055565b60035481565b60026020526000908152604090205460ff1681565b6007805482908110610a3357fe5b600091825260209182902001805460408051601f6002600019610100600187161502019094169390930492830185900485028101850190915281815293509091830182828015610ac45780601f10610a9957610100808354040283529160200191610ac4565b820191906000526020600020905b815481529060010190602001808311610aa757829003601f168201915b505050505081565b3360009081526001602052604081205460ff161515610b24576040805160e560020a62461bcd02815260206004820152600b602482015260008051602062004c1a833981519152604482015290519081900360640190fd5b50600160a060020a038083166000908152600860205260408082205481517ff34dea760000000000000000000000000000000000000000000000000000000081526004810188905285851660248201529151931692839263f34dea76926044808201939182900301818387803b158015610b9d57600080fd5b505af1158015610bb1573d6000803e3d6000fd5b5050505050505050565b33600090815260026020526040812054819060ff161515610c26576040805160e560020a62461bcd02815260206004820152600b60248201527f436865636b204f574e4552000000000000000000000000000000000000000000604482015290519081900360640190fd5b8233610c30611126565b600160a060020a03821660208083019190915260408083528451908301528351829160608301919086019080838360005b83811015610c79578181015183820152602001610c61565b50505050905090810190601f168015610ca65780820380516001836020036101000a031916815260200191505b509350505050604051809103906000f080158015610cc8573d6000803e3d6000fd5b5091503360035483610cd8611137565b600160a060020a03938416815260208101929092529091166040808301919091525190819003606001906000f080158015610d17573d6000803e3d6000fd5b50905081600160a060020a03166345c84486826040518263ffffffff1660e060020a0281526004018082600160a060020a0316600160a060020a03168152602001915050602060405180830381600087803b158015610d7557600080fd5b505af1158015610d89573d6000803e3d6000fd5b505050506040513d6020811015610d9f57600080fd5b5050604080517f6559e59a000000000000000000000000000000000000000000000000000000008152600160a060020a038481166004830152915191831691636559e59a916024808201926020929091908290030181600087803b158015610e0657600080fd5b505af1158015610e1a573d6000803e3d6000fd5b505050506040513d6020811015610e3057600080fd5b50506006805460018082019092557ff652222313e28459528d920b65115c16c04f3efc82aaedc97be59f3f377c0d3f01805473ffffffffffffffffffffffffffffffffffffffff1916600160a060020a0385161790556007805491820180825560009190915284519091610ecd917fa66cc928b5edb82af9bd49922954155ab7b0942694bea4ce44661d9a8736c688909101906020870190611148565b50503360008181526009602090815260408083208054600160a060020a0397881673ffffffffffffffffffffffffffffffffffffffff1991821681179092559084526008835281842080549690971695169490941790945590815260029092529020805460ff1916905550565b60606006805480602002602001604051908101604052809291908181526020018280548015610f9257602002820191906000526020600020905b8154600160a060020a03168152600190910190602001808311610f74575b505050505090505b90565b600860205260009081526040902054600160a060020a031681565b3360009081526001602052604090205460ff161515611010576040805160e560020a62461bcd02815260206004820152600b602482015260008051602062004c1a833981519152604482015290519081900360640190fd5b82600160a060020a03166383c17c55826040518263ffffffff1660e060020a0281526004018082600160a060020a0316600160a060020a03168152602001915050602060405180830381600087803b15801561106b57600080fd5b505af115801561107f573d6000803e3d6000fd5b505050506040513d602081101561109557600080fd5b5050604080517f83c17c55000000000000000000000000000000000000000000000000000000008152600160a060020a0383811660048301529151918416916383c17c55916024808201926020929091908290030181600087803b1580156110fc57600080fd5b505af1158015611110573d6000803e3d6000fd5b505050506040513d602081101561088557600080fd5b60405161213580620011e183390190565b604051611904806200331683390190565b828054600181600116156101000203166002900490600052602060002090601f016020900481019282601f1061118957805160ff19168380011785556111b6565b828001600101855582156111b6579182015b828111156111b657825182559160200191906001019061119b565b506111c29291506111c6565b5090565b610f9a91905b808211156111c257600081556001016111cc560060806040523480156200001157600080fd5b50604051620021353803806200213583398101604052805160208083015160008054600160a060020a031916600160a060020a0383161790559190920180519092620000639160069185019062000083565b505060018054600160a060020a0319163317905550600060035562000128565b828054600181600116156101000203166002900490600052602060002090601f016020900481019282601f10620000c657805160ff1916838001178555620000f6565b82800160010185558215620000f6579182015b82811115620000f6578251825591602001919060010190620000d9565b506200010492915062000108565b5090565b6200012591905b808211156200010457600081556001016200010f565b90565b611ffd80620001386000396000f3006080604052600436106100e55763ffffffff7c01000000000000000000000000000000000000000000000000000000006000350416630441917e81146100ea57806322702473146101ee57806336bb3a7e146102155780634051ddac1461023e57806345c844861461030b578063481c6a751461032c5780634f5843421461035d578063521936e6146103725780637d9f6db5146103fc57806383c17c55146104115780638487deed14610432578063966dae0e1461051b5780639979c00914610530578063ad4b9cfb1461053e578063bfb231d2146106e1578063c4dd7e4e1461077f575b600080fd5b3480156100f657600080fd5b5060408051602060046024803582810135601f81018590048502860185019096528585526101da95833595369560449491939091019190819084018382808284375050604080516020601f89358b018035918201839004830284018301909452808352979a99988101979196509182019450925082915084018382808284375050604080516020601f89358b018035918201839004830284018301909452808352979a9998810197919650918201945092508291508401838280828437509497505084359550505060208301359260400135600160a060020a031691506107a09050565b604080519115158252519081900360200190f35b3480156101fa57600080fd5b506102036108a3565b60408051918252519081900360200190f35b34801561022157600080fd5b5061023c600435602435600160a060020a03604435166108a9565b005b34801561024a57600080fd5b50610253610a29565b604051808060200186815260200185600160a060020a0316600160a060020a0316815260200184815260200183600160a060020a0316600160a060020a03168152602001828103825287818151815260200191508051906020019080838360005b838110156102cc5781810151838201526020016102b4565b50505050905090810190601f1680156102f95780820380516001836020036101000a031916815260200191505b50965050505050505060405180910390f35b34801561031757600080fd5b506101da600160a060020a0360043516610af1565b34801561033857600080fd5b50610341610b8b565b60408051600160a060020a039092168252519081900360200190f35b34801561036957600080fd5b50610341610b9a565b34801561037e57600080fd5b50610387610ba9565b6040805160208082528351818301528351919283929083019185019080838360005b838110156103c15781810151838201526020016103a9565b50505050905090810190601f1680156103ee5780820380516001836020036101000a031916815260200191505b509250505060405180910390f35b34801561040857600080fd5b50610341610c37565b34801561041d57600080fd5b506101da600160a060020a0360043516610c46565b34801561043e57600080fd5b506040805160206004803580820135601f810184900484028501840190955284845261023c94369492936024939284019190819084018382808284375050604080516020601f89358b018035918201839004830284018301909452808352979a99988101979196509182019450925082915084018382808284375050604080516020601f89358b018035918201839004830284018301909452808352979a99988101979196509182019450925082915084018382808284375094975050843595505050602083013592604081013515159250606001359050610cde565b34801561052757600080fd5b5061034161107d565b61023c60043560243561108c565b34801561054a57600080fd5b50610556600435611410565b6040518089815260200180602001806020018060200188815260200187815260200186600160a060020a0316600160a060020a0316815260200185600160a060020a0316600160a060020a0316815260200184810384528b818151815260200191508051906020019080838360005b838110156105dd5781810151838201526020016105c5565b50505050905090810190601f16801561060a5780820380516001836020036101000a031916815260200191505b5084810383528a5181528a516020918201918c019080838360005b8381101561063d578181015183820152602001610625565b50505050905090810190601f16801561066a5780820380516001836020036101000a031916815260200191505b5084810382528951815289516020918201918b019080838360005b8381101561069d578181015183820152602001610685565b50505050905090810190601f1680156106ca5780820380516001836020036101000a031916815260200191505b509b50505050505050505050505060405180910390f35b3480156106ed57600080fd5b506106f960043561162a565b6040518089815260200180602001806020018060200188815260200187600160a060020a0316600160a060020a0316815260200186600160a060020a0316600160a060020a0316815260200185815260200184810384528b81815181526020019150805190602001908083836000838110156105dd5781810151838201526020016105c5565b34801561078b57600080fd5b50610203600160a060020a0360043516611819565b600080548190600160a060020a03163314610805576040805160e560020a62461bcd02815260206004820152600d60248201527f436865636b204d414e4147455200000000000000000000000000000000000000604482015290519081900360640190fd5b5060008881526007602090815260409091208851909161082c9160028401918b0190611875565b50865161084290600183019060208a0190611875565b5085516108589060038301906020890190611875565b506004810185905560078101849055600681018054600160a060020a03851673ffffffffffffffffffffffffffffffffffffffff199091161790556001915050979650505050505050565b60035481565b33600081815260056020526040812054909185918214610913576040805160e560020a62461bcd02815260206004820152601460248201527f436865636b206163746976652041554354494f4e000000000000000000000000604482015290519081900360640190fd5b60008681526007602081815260408084206002549381015482517f830b7d70000000000000000000000000000000000000000000000000000000008152600481018d9052602481018c9052600160a060020a038b81166044830152606482019290925292519198509093169363830b7d7093608480840194939192918390030190829087803b1580156109a557600080fd5b505af11580156109b9573d6000803e3d6000fd5b505050506040513d60208110156109cf57600080fd5b505060006007840181905533815260056020908152604080832092909255600354825190815291517f92f64ca637d023f354075a4be751b169c1a8a9ccb6d33cdd0cb35205439957279281900390910190a1505050505050565b6002805460035460008054600680546040805160206101006001851615026000190190931698909804601f81018390048302890183019091528088526060979496879687968796600160a060020a0393841680319690959394909116928791830182828015610ad95780601f10610aae57610100808354040283529160200191610ad9565b820191906000526020600020905b815481529060010190602001808311610abc57829003601f168201915b50505050509450945094509450945094509091929394565b600154600090600160a060020a0316338114610b57576040805160e560020a62461bcd02815260206004820152600d60248201527f436865636b204144445245535300000000000000000000000000000000000000604482015290519081900360640190fd5b60028054600160a060020a03851673ffffffffffffffffffffffffffffffffffffffff199091161790556001915050919050565b600054600160a060020a031681565b600254600160a060020a031681565b6006805460408051602060026001851615610100026000190190941693909304601f81018490048402820184019092528181529291830182828015610c2f5780601f10610c0457610100808354040283529160200191610c2f565b820191906000526020600020905b815481529060010190602001808311610c1257829003601f168201915b505050505081565b600454600160a060020a031681565b600154600090600160a060020a0316338114610cac576040805160e560020a62461bcd02815260206004820152600d60248201527f436865636b204144445245535300000000000000000000000000000000000000604482015290519081900360640190fd5b60018054600160a060020a03851673ffffffffffffffffffffffffffffffffffffffff19909116178155915050919050565b600054600160a060020a03163314610d40576040805160e560020a62461bcd02815260206004820152600d60248201527f436865636b204d414e4147455200000000000000000000000000000000000000604482015290519081900360640190fd5b8115610f2c576002546003548291600160a060020a03169086610d616118f3565b938452600160a060020a03909216602084015260408084019190915260608301919091525190819003608001906000f080158015610da3573d6000803e3d6000fd5b506004805473ffffffffffffffffffffffffffffffffffffffff1916600160a060020a0392831617908190556003549116600090815260056020908152604091829020839055815192835290517fa96ae0fc3224ebd79eebfe54bd130cc9cb94416cddd1f2386115e00b725324689281900390910190a1604080516101008101825260035480825260208083018a81528385018c9052606084018a90526080840189905260008054600160a060020a0390811660a08701526004541660c086015260e0850189905292835260078252939091208251815592518051929392610e919260018501920190611875565b5060408201518051610ead916002840191602090910190611875565b5060608201518051610ec9916003840191602090910190611875565b506080820151600482015560a0820151600582018054600160a060020a0392831673ffffffffffffffffffffffffffffffffffffffff199182161790915560c084015160068401805491909316911617905560e09091015160079091015561106b565b60035460408051918252517fa96ae0fc3224ebd79eebfe54bd130cc9cb94416cddd1f2386115e00b725324689181900360200190a1604080516101008101825260035480825260208083018a81528385018c9052606084018a90526080840189905260008054600160a060020a031660a086015260c0850181905260e0850189905292835260078252939091208251815592518051929392610fd49260018501920190611875565b5060408201518051610ff0916002840191602090910190611875565b506060820151805161100c916003840191602090910190611875565b506080820151600482015560a0820151600582018054600160a060020a0392831673ffffffffffffffffffffffffffffffffffffffff199182161790915560c084015160068401805491909316911617905560e0909101516007909101555b50506003805460010190555050505050565b600154600160a060020a031681565b6000828152600760208190526040822001548190849084908111156110fb576040805160e560020a62461bcd02815260206004820152601160248201527f436865636b20415641494c4942494c5459000000000000000000000000000000604482015290519081900360640190fd5b6000868152600760205260409020600601548690600160a060020a03161561116d576040805160e560020a62461bcd02815260206004820152600c60248201527f41756374696f6e204f6e6c790000000000000000000000000000000000000000604482015290519081900360640190fd5b60008781526007602052604090206004015461118f908763ffffffff61182b16565b348111156111e7576040805160e560020a62461bcd02815260206004820152600b60248201527f436865636b2056414c5545000000000000000000000000000000000000000000604482015290519081900360640190fd5b60008881526007602052604081206004810154909750899189918190611213908463ffffffff61182b16565b98503331891061126d576040805160e560020a62461bcd02815260206004820152601760248201527f427579204974656d3a20436865636b2042414c414e4345000000000000000000604482015290519081900360640190fd5b60078a0154611282908c63ffffffff61186116565b60078b0155600254604080517f830b7d70000000000000000000000000000000000000000000000000000000008152600481018f9052602481018c9052336044820152606481018e90529051600160a060020a039092169163830b7d70916084808201926020929091908290030181600087803b15801561130257600080fd5b505af1158015611316573d6000803e3d6000fd5b505050506040513d602081101561132c57600080fd5b5050600254604051600160a060020a03909116908a156108fc02908b906000818181858888f19350505050158015611368573d6000803e3d6000fd5b50604080513031815290517f92f64ca637d023f354075a4be751b169c1a8a9ccb6d33cdd0cb35205439957279181900360200190a160008481526007602052604090206004015491506113d16113c4838563ffffffff61182b16565b349063ffffffff61186116565b604051909150339082156108fc029083906000818181858888f19350505050158015611401573d6000803e3d6000fd5b50505050505050505050505050565b600081815260076020908152604080832080546002808301805485516001821615610100026000190190911692909204601f810187900487028301870190955284825291956060958695869592948594859485949093919291908301828280156114bb5780601f10611490576101008083540402835291602001916114bb565b820191906000526020600020905b81548152906001019060200180831161149e57829003601f168201915b50505050509750806001018054600181600116156101000203166002900480601f01602080910402602001604051908101604052809291908181526020018280546001816001161561010002031660029004801561155a5780601f1061152f5761010080835404028352916020019161155a565b820191906000526020600020905b81548152906001019060200180831161153d57829003601f168201915b5050505060038301805460408051602060026001851615610100026000190190941693909304601f8101849004840282018401909252818152949b509192508301828280156115ea5780601f106115bf576101008083540402835291602001916115ea565b820191906000526020600020905b8154815290600101906020018083116115cd57829003601f168201915b5050506004840154600585015460068601546007870154959b50919950939750600160a060020a0390811696509092169350505050919395975091939597565b6007602090815260009182526040918290208054600180830180548651600293821615610100026000190190911692909204601f8101869004860283018601909652858252919492939092908301828280156116c75780601f1061169c576101008083540402835291602001916116c7565b820191906000526020600020905b8154815290600101906020018083116116aa57829003601f168201915b50505060028085018054604080516020601f60001961010060018716150201909416959095049283018590048502810185019091528181529596959450909250908301828280156117595780601f1061172e57610100808354040283529160200191611759565b820191906000526020600020905b81548152906001019060200180831161173c57829003601f168201915b5050505060038301805460408051602060026001851615610100026000190190941693909304601f81018490048402820184019092528181529495949350908301828280156117e95780601f106117be576101008083540402835291602001916117e9565b820191906000526020600020905b8154815290600101906020018083116117cc57829003601f168201915b50505060048401546005850154600686015460079096015494959194600160a060020a0391821694509116915088565b60056020526000908152604090205481565b60008083151561183e576000915061185a565b5082820282848281151561184e57fe5b041461185657fe5b8091505b5092915050565b6000808383111561186e57fe5b5050900390565b828054600181600116156101000203166002900490600052602060002090601f016020900481019282601f106118b657805160ff19168380011785556118e3565b828001600101855582156118e3579182015b828111156118e35782518255916020019190600101906118c8565b506118ef929150611903565b5090565b6040516106b18061192183390190565b61191d91905b808211156118ef5760008155600101611909565b905600608060405234801561001057600080fd5b506040516080806106b1833981016040908152815160208301519183015160609093015160038054600160a060020a03909416600160a060020a0319948516179055600093909355420160045560029190915560018054909116331790556106348061007d6000396000f3006080604052600436106100985763ffffffff7c01000000000000000000000000000000000000000000000000000000006000350416631998aeef811461009d5780632a24f46c146100a757806338af3eed146100bc5780633ccfd60b146100ed5780634462f40c1461011657806361c7628b1461013d57806391f9015714610152578063975057e714610167578063d57bde791461017c575b600080fd5b6100a5610191565b005b3480156100b357600080fd5b506100a56102d6565b3480156100c857600080fd5b506100d161055f565b60408051600160a060020a039092168252519081900360200190f35b3480156100f957600080fd5b5061010261056e565b604080519115158252519081900360200190f35b34801561012257600080fd5b5061012b6105d8565b60408051918252519081900360200190f35b34801561014957600080fd5b5061012b6105de565b34801561015e57600080fd5b506100d16105e4565b34801561017357600080fd5b506100d16105f3565b34801561018857600080fd5b5061012b610602565b6004544211156101eb576040805160e560020a62461bcd02815260206004820152601660248201527f41756374696f6e20616c726561647920656e6465642e00000000000000000000604482015290519081900360640190fd5b6006543411610244576040805160e560020a62461bcd02815260206004820152601e60248201527f546865726520616c7265616479206973206120686967686572206269642e0000604482015290519081900360640190fd5b6006541561027157600654600554600160a060020a03166000908152600760205260409020805490910190555b6005805473ffffffffffffffffffffffffffffffffffffffff19163390811790915534600681905560408051928352602083019190915280517ff4757a49b326036464bec6fe419a4ae38c8a02ce3e68bf0809674f6aab8ad3009281900390910190a1565b600454421015610330576040805160e560020a62461bcd02815260206004820152601660248201527f41756374696f6e206e6f742079657420656e6465642e00000000000000000000604482015290519081900360640190fd5b60085460ff16156103b1576040805160e560020a62461bcd02815260206004820152602360248201527f61756374696f6e456e642068617320616c7265616479206265656e2063616c6c60448201527f65642e0000000000000000000000000000000000000000000000000000000000606482015290519081900360840190fd5b6006546002541115610433576040805160e560020a62461bcd02815260206004820152602860248201527f61756374696f6e456e6420446964206e6f7420657863656564206d696e696d7560448201527f6d2070726963652e000000000000000000000000000000000000000000000000606482015290519081900360840190fd5b6008805460ff1916600117905560055460065460408051600160a060020a039093168352602083019190915280517fdaec4582d5d9595688c8c98545fdd1c696d41c6aeaeb636737e84ed2f5c00eda9281900390910190a1600354600654604051600160a060020a039092169181156108fc0291906000818181858888f193505050501580156104c7573d6000803e3d6000fd5b5060015460008054600654600554604080517f36bb3a7e00000000000000000000000000000000000000000000000000000000815260048101949094526024840192909252600160a060020a03908116604484015290519316926336bb3a7e9260648084019391929182900301818387803b15801561054557600080fd5b505af1158015610559573d6000803e3d6000fd5b50505050565b600354600160a060020a031681565b33600090815260076020526040812054818111156105cf57336000818152600760205260408082208290555183156108fc0291849190818181858888f1935050505015156105cf5733600090815260076020526040812082905591506105d4565b600191505b5090565b60005481565b60045481565b600554600160a060020a031681565b600154600160a060020a031681565b600654815600a165627a7a723058201867fa22a476028726a6ebff1779bb6cdbe43845052e224b7a14951ba3bba0770029a165627a7a723058200cecba629eb22c92c7a0aeab63c868b27342a79f6225c661532bab762e99aa24002960806040526002805460a060020a60ff021916905534801561002057600080fd5b5060405160608061190483398101604090815281516020830151919092015160008054600160a060020a03948516600160a060020a031991821617825560018054821633179055600280549590931694169390931790556007556006556118788061008c6000396000f30060806040526004361061011c5763ffffffff7c01000000000000000000000000000000000000000000000000000000006000350416631385d24c811461011e5780631b8d56ff146101335780632453ffa8146101fb578063348a71a614610222578063481c6a751461023a57806355fc62751461026b57806364c759ab146102a05780636559e59a146102ab57806376c5f560146102cc578063830b7d701461032a57806383c17c5514610354578063966dae0e146103755780639b0ac9b01461038a578063a26be9991461039f578063a4b2409e146103b7578063a85c38ef146103cf578063ac43270a1461042b578063f2c4da9314610436578063f34dea761461044b578063f61c899a1461046f578063f916267b14610487575b005b34801561012a57600080fd5b5061011c6104ec565b34801561013f57600080fd5b5061014b600435610581565b604051808881526020018781526020018681526020018060200185815260200184815260200183600781111561017d57fe5b60ff168152602001828103825286818151815260200191508051906020019080838360005b838110156101ba5781810151838201526020016101a2565b50505050905090810190601f1680156101e75780820380516001836020036101000a031916815260200191505b509850505050505050505060405180910390f35b34801561020757600080fd5b5061021061075e565b60408051918252519081900360200190f35b34801561022e57600080fd5b5061011c600435610764565b34801561024657600080fd5b5061024f610887565b60408051600160a060020a039092168252519081900360200190f35b34801561027757600080fd5b5061028c600160a060020a0360043516610896565b604080519115158252519081900360200190f35b61011c6004356108ab565b3480156102b757600080fd5b5061028c600160a060020a0360043516610af6565b3480156102d857600080fd5b5060408051602060046024803582810135601f810185900485028601850190965285855261011c958335953695604494919390910191908190840183828082843750949750610b7e9650505050505050565b34801561033657600080fd5b50610210600435602435600160a060020a0360443516606435610cca565b34801561036057600080fd5b5061028c600160a060020a0360043516610ed2565b34801561038157600080fd5b5061024f610f58565b34801561039657600080fd5b50610210610f67565b3480156103ab57600080fd5b5061011c600435610f6d565b3480156103c357600080fd5b5061011c6004356110a2565b3480156103db57600080fd5b506103e760043561122b565b6040518088815260200187815260200186600160a060020a0316600160a060020a031681526020018060200185815260200184815260200183600781111561017d57fe5b61011c600435611300565b34801561044257600080fd5b5061024f611450565b34801561045757600080fd5b5061011c600435600160a060020a036024351661145f565b34801561047b57600080fd5b5061011c600435611583565b34801561049357600080fd5b5061049c6116c1565b60408051602080825283518183015283519192839290830191858101910280838360005b838110156104d85781810151838201526020016104c0565b505050509050019250505060405180910390f35b600154600160a060020a031633811461053d576040805160e560020a62461bcd02815260206004820152600d602482015260008051602061182d833981519152604482015290519081900360640190fd5b506002805474ff0000000000000000000000000000000000000000198116740100000000000000000000000000000000000000009182900460ff1615909102179055565b600080600060606000806000610595611723565b600089815260056020526040902060020154600160a060020a0316338114806105c85750600054600160a060020a031633145b151561061e576040805160e560020a62461bcd02815260206004820152601760248201527f436865636b204d616e61676572206f7220427579657273000000000000000000604482015290519081900360640190fd5b60008a815260056020908152604091829020825160e0810184528154815260018083015482850152600280840154600160a060020a03168387015260038401805487516101009482161594909402600019011691909104601f8101869004860283018601909652858252919492936060860193919291908301828280156106e65780601f106106bb576101008083540402835291602001916106e6565b820191906000526020600020905b8154815290600101906020018083116106c957829003601f168201915b50505091835250506004820154602082015260058201546040820152600682015460609091019060ff16600781111561071b57fe5b600781111561072657fe5b905250805160208201516060830151608084015160a085015160c0909501519e9f939e929d50909b5099509197509095509350505050565b60065481565b60008054600160a060020a031633146107c7576040805160e560020a62461bcd02815260206004820152601060248201527f436865636b206973204d414e4147455200000000000000000000000000000000604482015290519081900360640190fd5b81600760008281526005602052604090206006015460ff1660078111156107ea57fe5b141561082e576040805160e560020a62461bcd028152602060048201526013602482015260008051602061180d833981519152604482015290519081900360640190fd5b60008381526005602081815260409283902060068101805460ff1916909317909255825186815292519194507f3ad93af63cb7967b23e4fb500b7d7d28b07516325dcf341f88bebf959d82c1cb928290030190a1505050565b600054600160a060020a031681565b60046020526000908152604090205460ff1681565b60008054600160a060020a0316331461090e576040805160e560020a62461bcd02815260206004820152601060248201527f436865636b206973204d414e4147455200000000000000000000000000000000604482015290519081900360640190fd5b60025474010000000000000000000000000000000000000000900460ff161561093657600080fd5b60008281526005602081905260409091200154829042116109a1576040805160e560020a62461bcd02815260206004820152601860248201527f436865636b2041465445522074696d6520657870697265730000000000000000604482015290519081900360640190fd5b82600760008281526005602052604090206006015460ff1660078111156109c457fe5b1415610a08576040805160e560020a62461bcd028152602060048201526013602482015260008051602061180d833981519152604482015290519081900360640190fd5b600084815260056020526040902092506004600684015460ff166007811115610a2d57fe5b141580610a4d57506005600684015460ff166007811115610a4a57fe5b14155b1515610aa3576040805160e560020a62461bcd02815260206004820152600c60248201527f436865636b20524546554e440000000000000000000000000000000000000000604482015290519081900360640190fd5b60068301805460ff19166007179055600080546001850154604051600160a060020a03909216926108fc8215029290818181858888f19350505050158015610aef573d6000803e3d6000fd5b5050505050565b600154600090600160a060020a0316338114610b4a576040805160e560020a62461bcd02815260206004820152600d602482015260008051602061182d833981519152604482015290519081900360640190fd5b60028054600160a060020a03851673ffffffffffffffffffffffffffffffffffffffff199091161790556001915050919050565b6000828160008281526005602052604090206006015460ff166007811115610ba257fe5b14610bf7576040805160e560020a62461bcd02815260206004820152600f60248201527f436865636b204974656d20534f4c440000000000000000000000000000000000604482015290519081900360640190fd5b600084815260056020526040902060020154600160a060020a0316338114610c57576040805160e560020a62461bcd02815260206004820152600d602482015260008051602061182d833981519152604482015290519081900360640190fd5b60008581526005602090815260409091208551909450610c7f91600386019190870190611774565b5060068301805460ff191660011790556040805186815290517fa8142743f8f70a4c26f3691cf4ed59718381fb2f18070ec52be1f1022d855557916020908290030190a15050505050565b600254600090600160a060020a0316338114610d1e576040805160e560020a62461bcd02815260206004820152600d602482015260008051602061182d833981519152604482015290519081900360640190fd5b60025474010000000000000000000000000000000000000000900460ff1615610d4657600080fd5b60e06040519081016040528087815260200186815260200185600160a060020a031681526020016020604051908101604052806000815250815260200184815260200142815260200160006007811115610d9c57fe5b9052600654600090815260056020908152604091829020835181558382015160018201559183015160028301805473ffffffffffffffffffffffffffffffffffffffff1916600160a060020a0390921691909117905560608301518051610e099260038501920190611774565b506080820151600482015560a0820151600582015560c082015160068201805460ff19166001836007811115610e3b57fe5b02179055505050600160a060020a03841660008181526003602090815260408083206006805482546001818101855593875285872001559484526004835292819020805460ff19169093179092559154815190815290517f7e82078c35b6665b9d320ebeaa6c266960fad5b802c5558cf7df60c4769af95b929181900390910190a150506006805460018101909155949350505050565b600154600090600160a060020a0316338114610f26576040805160e560020a62461bcd02815260206004820152600d602482015260008051602061182d833981519152604482015290519081900360640190fd5b60018054600160a060020a03851673ffffffffffffffffffffffffffffffffffffffff19909116178155915050919050565b600154600160a060020a031681565b60075481565b600081600260008281526005602052604090206006015460ff166007811115610f9257fe5b14610fe7576040805160e560020a62461bcd02815260206004820152601260248201527f436865636b204974656d20534849505045440000000000000000000000000000604482015290519081900360640190fd5b600083815260056020526040902060020154600160a060020a0316338114611047576040805160e560020a62461bcd02815260206004820152600d602482015260008051602061182d833981519152604482015290519081900360640190fd5b60008481526005602090815260409182902060068101805460ff19166003179055825187815292519095507fa8142743f8f70a4c26f3691cf4ed59718381fb2f18070ec52be1f1022d8555579281900390910190a150505050565b80600760008281526005602052604090206006015460ff1660078111156110c557fe5b1415611109576040805160e560020a62461bcd028152602060048201526013602482015260008051602061180d833981519152604482015290519081900360640190fd5b6000828152600560208190526040909120015482904210611174576040805160e560020a62461bcd02815260206004820152601960248201527f436865636b204245464f52452074696d65206578706972657300000000000000604482015290519081900360640190fd5b600083815260056020526040902060020154600160a060020a03163381146111d4576040805160e560020a62461bcd02815260206004820152600d602482015260008051602061182d833981519152604482015290519081900360640190fd5b600084815260056020908152604091829020600601805460ff19166004179055815186815291517f2e1897b0591d764356194f7a795238a87c1987c7a877568e50d829d547c92b979281900390910190a150505050565b600560209081526000918252604091829020805460018083015460028085015460038601805489516101009682161596909602600019011692909204601f810188900488028501880190985287845293969195600160a060020a0390941694939091908301828280156112df5780601f106112b4576101008083540402835291602001916112df565b820191906000526020600020905b8154815290600101906020018083116112c257829003601f168201915b50505050600483015460058401546006909401549293909290915060ff1687565b600081815260056020526040812060020154600160a060020a0316338114611360576040805160e560020a62461bcd02815260206004820152600d602482015260008051602061182d833981519152604482015290519081900360640190fd5b82600560008281526005602052604090206006015460ff16600781111561138357fe5b146113d8576040805160e560020a62461bcd02815260206004820152601360248201527f436865636b204974656d20415050524f56454400000000000000000000000000604482015290519081900360640190fd5b60025474010000000000000000000000000000000000000000900460ff161561140057600080fd5b60008481526005602052604080822060068101805460ff191660071790556001810154915190955033926108fc831502929190818181858888f19350505050158015610aef573d6000803e3d6000fd5b600254600160a060020a031681565b600154600090600160a060020a03163381146114b3576040805160e560020a62461bcd02815260206004820152600d602482015260008051602061182d833981519152604482015290519081900360640190fd5b83600760008281526005602052604090206006015460ff1660078111156114d657fe5b141561151a576040805160e560020a62461bcd028152602060048201526013602482015260008051602061180d833981519152604482015290519081900360640190fd5b60008581526005602052604090206002810154909350600160a060020a03858116911614156115575760068301805460ff19166005179055610aef565b600054600160a060020a0385811691161415610aef5750506006908101805460ff191690911790555050565b600081600160008281526005602052604090206006015460ff1660078111156115a857fe5b146115fd576040805160e560020a62461bcd02815260206004820152601660248201527f436865636b204974656d2044656c69766572496e666f00000000000000000000604482015290519081900360640190fd5b600054600160a060020a0316331461165f576040805160e560020a62461bcd02815260206004820152601060248201527f436865636b206973204d414e4147455200000000000000000000000000000000604482015290519081900360640190fd5b6040805184815290517ff00b9a5725b80c54016f42114f6ed7792d22eecb116011c4afac29c57bef6c959181900360200190a150506000908152600560208190526040909120600754420191810191909155600601805460ff19166002179055565b3360009081526003602090815260409182902080548351818402810184019094528084526060939283018282801561171857602002820191906000526020600020905b815481526020019060010190808311611704575b505050505090505b90565b60e06040519081016040528060008152602001600081526020016000600160a060020a031681526020016060815260200160008152602001600081526020016000600781111561176f57fe5b905290565b828054600181600116156101000203166002900490600052602060002090601f016020900481019282601f106117b557805160ff19168380011785556117e2565b828001600101855582156117e2579182015b828111156117e25782518255916020019190600101906117c7565b506117ee9291506117f2565b5090565b61172091905b808211156117ee57600081556001016117f85600436865636b204974656d20434f4d504c45544500000000000000000000000000436865636b204144445245535300000000000000000000000000000000000000a165627a7a72305820f1f2a317d76baf41d2d0fd43f3196e7085cd23eb99a9c7d75c819e97023915fa0029436865636b205354414646000000000000000000000000000000000000000000a165627a7a723058203f78a6bd5480a73de661bf39faf339a6b652b5658ce8d6cb4e9fa7a0ded1d57f0029",
  "source": "pragma solidity ^0.4.23;\r\nimport \"./Orders.sol\";\r\nimport \"./Store.sol\";\r\n\r\ncontract Factory {\r\n    \r\n    address public manager;\r\n    mapping(address => bool) public adminStaff;\r\n    mapping(address => bool) public approvedStoreOwner;\r\n    \r\n    uint public refundTime;\r\n    \r\n    Orders orders;\r\n    Store store;\r\n    \r\n    \r\n    address[] public deployedStores;\r\n    string[] public deployedStoreNames;\r\n    \r\n    mapping(address => address) public storeAndOrders;\r\n    mapping(address => address) public storeAndManagers;\r\n    \r\n    modifier restricted() {require(msg.sender == manager,\"Check MANAGER\"); _;}\r\n    modifier restrictedStaff() {require(adminStaff[msg.sender],\"Check STAFF\"); _;}\r\n    modifier restrictedOwners() {require(approvedStoreOwner[msg.sender],\"Check OWNER\"); _;}\r\n    \r\n    constructor (uint _refundTime) public {\r\n        manager = msg.sender;\r\n        adminStaff[msg.sender] = true;\r\n        refundTime = _refundTime;\r\n        \r\n    }\r\n    \r\n    /*\r\n    Approved Owners\r\n    */\r\n    function createStore(string _name) public restrictedOwners {\r\n        Store newStore = new Store(_name,msg.sender);\r\n        Orders newOrder = new Orders(msg.sender,refundTime,newStore);\r\n        newStore.setOrderAddress(newOrder);\r\n        newOrder.setStoreAddress(newStore);\r\n        \r\n        deployedStores.push(newStore);\r\n        deployedStoreNames.push(_name);\r\n\r\n        storeAndManagers[msg.sender] = newStore;\r\n        storeAndOrders[newStore] = newOrder;\r\n        approvedStoreOwner[msg.sender] = false;\r\n    }\r\n    \r\n    /*\r\n    Anyone to Create Store\r\n    */\r\n    function getDeployedStores() public view returns (address[]) {\r\n        return deployedStores;\r\n    }\r\n\r\n    function getOrderFromStore(address _storeAddress) public view returns (address orderAddress) {\r\n        return storeAndOrders[_storeAddress];\r\n    }\r\n\r\n    /*\r\n    Admin only task\r\n    */\r\n    function resolveDispute(uint _orderId,address _storeAddress,address _winner) \r\n    public\r\n    restrictedStaff\r\n    {\r\n        address orderAddress = storeAndOrders[_storeAddress];\r\n        Orders(orderAddress).adminResolvesDispute(_orderId,_winner);\r\n        \r\n    }\r\n\r\n    function updateStore(address _storeAddress, address _newAddress) \r\n    public\r\n    restrictedStaff\r\n    {   \r\n        Orders(_storeAddress).setStoreAddress(_newAddress);\r\n        \r\n    }\r\n    \r\n    function updateOrders(address _storeAddress, address _newAddress) \r\n    public\r\n    restrictedStaff\r\n    {   \r\n        Store(_storeAddress).setOrderAddress(_newAddress);   \r\n    }\r\n    \r\n    function updateFactory(address _storeAddress, address _orderAddress, address _factoryAddress) \r\n    public\r\n    restrictedStaff\r\n    {   \r\n        Store(_storeAddress).setFactoryAddress(_factoryAddress);\r\n        Orders(_orderAddress).setFactoryAddress(_factoryAddress);\r\n    }\r\n\r\n    function updateRefundTime(uint _refundTime) \r\n    public\r\n    restrictedStaff\r\n    {   \r\n        refundTime = _refundTime;\r\n    }\r\n    \r\n    function addStoreOwner(address _address) public restrictedStaff {\r\n        approvedStoreOwner[_address] = true;\r\n    }\r\n    \r\n    function delStoreOwner(address _address) public restrictedStaff {\r\n        delete approvedStoreOwner[_address];\r\n    }\r\n\r\n    function stopStartWithdrawals(address _address) public restrictedStaff {\r\n        Orders(_address).toggleContractActive();\r\n    }\r\n\r\n    /*\r\n    Manager only task\r\n    */\r\n    function addAdminStaff(address _address) public restricted {\r\n        adminStaff[_address] = true;\r\n    }\r\n   \r\n    function delAdminStaff(address _address) public restricted {\r\n        delete adminStaff[_address];\r\n    }\r\n}",
  "sourcePath": "/home/beast/marketplace/contracts/Factory.sol",
  "compiler": {
    "name": "solc",
    "version": "0.4.24+commit.e67f0147.Emscripten.clang"
  },
  "schemaVersion": "2.0.0",
  "updatedAt": "2018-08-24T15:48:47.017Z"
}