{
  "contractName": "Orders",
  "abi": [
    {
      "constant": true,
      "inputs": [],
      "name": "orderCount",
      "outputs": [
        {
          "name": "",
          "type": "uint256"
        }
      ],
      "payable": false,
      "stateMutability": "view",
      "type": "function"
    },
    {
      "constant": true,
      "inputs": [],
      "name": "manager",
      "outputs": [
        {
          "name": "",
          "type": "address"
        }
      ],
      "payable": false,
      "stateMutability": "view",
      "type": "function"
    },
    {
      "constant": true,
      "inputs": [
        {
          "name": "",
          "type": "address"
        }
      ],
      "name": "buyerList",
      "outputs": [
        {
          "name": "",
          "type": "bool"
        }
      ],
      "payable": false,
      "stateMutability": "view",
      "type": "function"
    },
    {
      "constant": true,
      "inputs": [],
      "name": "factoryAddress",
      "outputs": [
        {
          "name": "",
          "type": "address"
        }
      ],
      "payable": false,
      "stateMutability": "view",
      "type": "function"
    },
    {
      "constant": true,
      "inputs": [],
      "name": "refundTime",
      "outputs": [
        {
          "name": "",
          "type": "uint256"
        }
      ],
      "payable": false,
      "stateMutability": "view",
      "type": "function"
    },
    {
      "constant": true,
      "inputs": [
        {
          "name": "",
          "type": "uint256"
        }
      ],
      "name": "orders",
      "outputs": [
        {
          "name": "itemId",
          "type": "uint256"
        },
        {
          "name": "price",
          "type": "uint256"
        },
        {
          "name": "buyer",
          "type": "address"
        },
        {
          "name": "deliver",
          "type": "string"
        },
        {
          "name": "quantity",
          "type": "uint256"
        },
        {
          "name": "date",
          "type": "uint256"
        },
        {
          "name": "state",
          "type": "uint8"
        }
      ],
      "payable": false,
      "stateMutability": "view",
      "type": "function"
    },
    {
      "constant": true,
      "inputs": [],
      "name": "storeAddress",
      "outputs": [
        {
          "name": "",
          "type": "address"
        }
      ],
      "payable": false,
      "stateMutability": "view",
      "type": "function"
    },
    {
      "inputs": [
        {
          "name": "_manager",
          "type": "address"
        },
        {
          "name": "_refundTime",
          "type": "uint256"
        },
        {
          "name": "_storeAddress",
          "type": "address"
        }
      ],
      "payable": false,
      "stateMutability": "nonpayable",
      "type": "constructor"
    },
    {
      "payable": true,
      "stateMutability": "payable",
      "type": "fallback"
    },
    {
      "anonymous": false,
      "inputs": [
        {
          "indexed": false,
          "name": "sku",
          "type": "uint256"
        }
      ],
      "name": "Sold",
      "type": "event"
    },
    {
      "anonymous": false,
      "inputs": [
        {
          "indexed": false,
          "name": "sku",
          "type": "uint256"
        }
      ],
      "name": "Shipped",
      "type": "event"
    },
    {
      "anonymous": false,
      "inputs": [
        {
          "indexed": false,
          "name": "sku",
          "type": "uint256"
        }
      ],
      "name": "Received",
      "type": "event"
    },
    {
      "anonymous": false,
      "inputs": [
        {
          "indexed": false,
          "name": "sku",
          "type": "uint256"
        }
      ],
      "name": "Refund",
      "type": "event"
    },
    {
      "anonymous": false,
      "inputs": [
        {
          "indexed": false,
          "name": "sku",
          "type": "uint256"
        }
      ],
      "name": "Approved",
      "type": "event"
    },
    {
      "anonymous": false,
      "inputs": [
        {
          "indexed": false,
          "name": "sku",
          "type": "uint256"
        }
      ],
      "name": "OrderCreated",
      "type": "event"
    },
    {
      "constant": false,
      "inputs": [
        {
          "name": "_itemId",
          "type": "uint256"
        },
        {
          "name": "_price",
          "type": "uint256"
        },
        {
          "name": "_buyer",
          "type": "address"
        },
        {
          "name": "_quantity",
          "type": "uint256"
        }
      ],
      "name": "createOrder",
      "outputs": [
        {
          "name": "orderId",
          "type": "uint256"
        }
      ],
      "payable": false,
      "stateMutability": "nonpayable",
      "type": "function"
    },
    {
      "constant": false,
      "inputs": [
        {
          "name": "_orderId",
          "type": "uint256"
        },
        {
          "name": "_deliver",
          "type": "string"
        }
      ],
      "name": "updateAddress",
      "outputs": [],
      "payable": false,
      "stateMutability": "nonpayable",
      "type": "function"
    },
    {
      "constant": false,
      "inputs": [
        {
          "name": "_orderId",
          "type": "uint256"
        }
      ],
      "name": "receiveItem",
      "outputs": [],
      "payable": false,
      "stateMutability": "nonpayable",
      "type": "function"
    },
    {
      "constant": false,
      "inputs": [
        {
          "name": "_orderId",
          "type": "uint256"
        }
      ],
      "name": "requestRefund",
      "outputs": [],
      "payable": false,
      "stateMutability": "nonpayable",
      "type": "function"
    },
    {
      "constant": false,
      "inputs": [
        {
          "name": "_orderId",
          "type": "uint256"
        }
      ],
      "name": "buyerWithdraws",
      "outputs": [],
      "payable": true,
      "stateMutability": "payable",
      "type": "function"
    },
    {
      "constant": true,
      "inputs": [],
      "name": "getOrdersList",
      "outputs": [
        {
          "name": "",
          "type": "uint256[]"
        }
      ],
      "payable": false,
      "stateMutability": "view",
      "type": "function"
    },
    {
      "constant": true,
      "inputs": [
        {
          "name": "_orderId",
          "type": "uint256"
        }
      ],
      "name": "fetchOrder",
      "outputs": [
        {
          "name": "orderId",
          "type": "uint256"
        },
        {
          "name": "item",
          "type": "uint256"
        },
        {
          "name": "price",
          "type": "uint256"
        },
        {
          "name": "deliver",
          "type": "string"
        },
        {
          "name": "quantity",
          "type": "uint256"
        },
        {
          "name": "date",
          "type": "uint256"
        },
        {
          "name": "state",
          "type": "uint8"
        }
      ],
      "payable": false,
      "stateMutability": "view",
      "type": "function"
    },
    {
      "constant": false,
      "inputs": [
        {
          "name": "_orderId",
          "type": "uint256"
        }
      ],
      "name": "shipItem",
      "outputs": [],
      "payable": false,
      "stateMutability": "nonpayable",
      "type": "function"
    },
    {
      "constant": false,
      "inputs": [
        {
          "name": "_orderId",
          "type": "uint256"
        }
      ],
      "name": "approveRefund",
      "outputs": [],
      "payable": false,
      "stateMutability": "nonpayable",
      "type": "function"
    },
    {
      "constant": false,
      "inputs": [
        {
          "name": "_orderId",
          "type": "uint256"
        }
      ],
      "name": "managerGetPaid",
      "outputs": [],
      "payable": true,
      "stateMutability": "payable",
      "type": "function"
    },
    {
      "constant": false,
      "inputs": [
        {
          "name": "_orderId",
          "type": "uint256"
        },
        {
          "name": "_winner",
          "type": "address"
        }
      ],
      "name": "adminResolvesDispute",
      "outputs": [],
      "payable": false,
      "stateMutability": "nonpayable",
      "type": "function"
    },
    {
      "constant": false,
      "inputs": [
        {
          "name": "_storeAddress",
          "type": "address"
        }
      ],
      "name": "setStoreAddress",
      "outputs": [
        {
          "name": "",
          "type": "bool"
        }
      ],
      "payable": false,
      "stateMutability": "nonpayable",
      "type": "function"
    },
    {
      "constant": false,
      "inputs": [
        {
          "name": "_factoryAddress",
          "type": "address"
        }
      ],
      "name": "setFactoryAddress",
      "outputs": [
        {
          "name": "",
          "type": "bool"
        }
      ],
      "payable": false,
      "stateMutability": "nonpayable",
      "type": "function"
    }
  ],
  "bytecode": "0x608060405234801561001057600080fd5b506040516060806117c783398101604090815281516020830151919092015160008054600160a060020a03948516600160a060020a0319918216178255600180548216331790556002805495909316941693909317905560075560065561174b8061007c6000396000f3006080604052600436106101115763ffffffff7c01000000000000000000000000000000000000000000000000000000006000350416631b8d56ff81146101135780632453ffa8146101db578063348a71a614610202578063481c6a751461021a57806355fc62751461024b57806364c759ab146102805780636559e59a1461028b57806376c5f560146102ac578063830b7d701461030a57806383c17c5514610334578063966dae0e146103555780639b0ac9b01461036a578063a26be9991461037f578063a4b2409e14610397578063a85c38ef146103af578063ac43270a1461040b578063f2c4da9314610416578063f34dea761461042b578063f61c899a1461044f578063f916267b14610467575b005b34801561011f57600080fd5b5061012b6004356104cc565b604051808881526020018781526020018681526020018060200185815260200184815260200183600781111561015d57fe5b60ff168152602001828103825286818151815260200191508051906020019080838360005b8381101561019a578181015183820152602001610182565b50505050905090810190601f1680156101c75780820380516001836020036101000a031916815260200191505b509850505050505050505060405180910390f35b3480156101e757600080fd5b506101f06106a9565b60408051918252519081900360200190f35b34801561020e57600080fd5b506101116004356106af565b34801561022657600080fd5b5061022f6107d2565b60408051600160a060020a039092168252519081900360200190f35b34801561025757600080fd5b5061026c600160a060020a03600435166107e1565b604080519115158252519081900360200190f35b6101116004356107f6565b34801561029757600080fd5b5061026c600160a060020a0360043516610a19565b3480156102b857600080fd5b5060408051602060046024803582810135601f8101859004850286018501909652858552610111958335953695604494919390910191908190840183828082843750949750610aa19650505050505050565b34801561031657600080fd5b506101f0600435602435600160a060020a0360443516606435610bed565b34801561034057600080fd5b5061026c600160a060020a0360043516610dcd565b34801561036157600080fd5b5061022f610e53565b34801561037657600080fd5b506101f0610e62565b34801561038b57600080fd5b50610111600435610e68565b3480156103a357600080fd5b50610111600435610f9d565b3480156103bb57600080fd5b506103c7600435611126565b6040518088815260200187815260200186600160a060020a0316600160a060020a031681526020018060200185815260200184815260200183600781111561015d57fe5b6101116004356111fb565b34801561042257600080fd5b5061022f611323565b34801561043757600080fd5b50610111600435600160a060020a0360243516611332565b34801561045b57600080fd5b50610111600435611456565b34801561047357600080fd5b5061047c611594565b60408051602080825283518183015283519192839290830191858101910280838360005b838110156104b85781810151838201526020016104a0565b505050509050019250505060405180910390f35b6000806000606060008060006104e06115f6565b600089815260056020526040902060020154600160a060020a0316338114806105135750600054600160a060020a031633145b1515610569576040805160e560020a62461bcd02815260206004820152601760248201527f436865636b204d616e61676572206f7220427579657273000000000000000000604482015290519081900360640190fd5b60008a815260056020908152604091829020825160e0810184528154815260018083015482850152600280840154600160a060020a03168387015260038401805487516101009482161594909402600019011691909104601f8101869004860283018601909652858252919492936060860193919291908301828280156106315780601f1061060657610100808354040283529160200191610631565b820191906000526020600020905b81548152906001019060200180831161061457829003601f168201915b50505091835250506004820154602082015260058201546040820152600682015460609091019060ff16600781111561066657fe5b600781111561067157fe5b905250805160208201516060830151608084015160a085015160c0909501519e9f939e929d50909b5099509197509095509350505050565b60065481565b60008054600160a060020a03163314610712576040805160e560020a62461bcd02815260206004820152601060248201527f436865636b206973204d414e4147455200000000000000000000000000000000604482015290519081900360640190fd5b81600760008281526005602052604090206006015460ff16600781111561073557fe5b1415610779576040805160e560020a62461bcd02815260206004820152601360248201526000805160206116e0833981519152604482015290519081900360640190fd5b60008381526005602081815260409283902060068101805460ff1916909317909255825186815292519194507f3ad93af63cb7967b23e4fb500b7d7d28b07516325dcf341f88bebf959d82c1cb928290030190a1505050565b600054600160a060020a031681565b60046020526000908152604090205460ff1681565b60008054600160a060020a03163314610859576040805160e560020a62461bcd02815260206004820152601060248201527f436865636b206973204d414e4147455200000000000000000000000000000000604482015290519081900360640190fd5b60008281526005602081905260409091200154829042116108c4576040805160e560020a62461bcd02815260206004820152601860248201527f436865636b2041465445522074696d6520657870697265730000000000000000604482015290519081900360640190fd5b82600760008281526005602052604090206006015460ff1660078111156108e757fe5b141561092b576040805160e560020a62461bcd02815260206004820152601360248201526000805160206116e0833981519152604482015290519081900360640190fd5b600084815260056020526040902092506004600684015460ff16600781111561095057fe5b14158061097057506005600684015460ff16600781111561096d57fe5b14155b15156109c6576040805160e560020a62461bcd02815260206004820152600c60248201527f436865636b20524546554e440000000000000000000000000000000000000000604482015290519081900360640190fd5b60068301805460ff19166007179055600080546001850154604051600160a060020a03909216926108fc8215029290818181858888f19350505050158015610a12573d6000803e3d6000fd5b5050505050565b600154600090600160a060020a0316338114610a6d576040805160e560020a62461bcd02815260206004820152600d6024820152600080516020611700833981519152604482015290519081900360640190fd5b60028054600160a060020a03851673ffffffffffffffffffffffffffffffffffffffff199091161790556001915050919050565b6000828160008281526005602052604090206006015460ff166007811115610ac557fe5b14610b1a576040805160e560020a62461bcd02815260206004820152600f60248201527f436865636b204974656d20534f4c440000000000000000000000000000000000604482015290519081900360640190fd5b600084815260056020526040902060020154600160a060020a0316338114610b7a576040805160e560020a62461bcd02815260206004820152600d6024820152600080516020611700833981519152604482015290519081900360640190fd5b60008581526005602090815260409091208551909450610ba291600386019190870190611647565b5060068301805460ff191660011790556040805186815290517fa8142743f8f70a4c26f3691cf4ed59718381fb2f18070ec52be1f1022d855557916020908290030190a15050505050565b600254600090600160a060020a0316338114610c41576040805160e560020a62461bcd02815260206004820152600d6024820152600080516020611700833981519152604482015290519081900360640190fd5b60e06040519081016040528087815260200186815260200185600160a060020a031681526020016020604051908101604052806000815250815260200184815260200142815260200160006007811115610c9757fe5b9052600654600090815260056020908152604091829020835181558382015160018201559183015160028301805473ffffffffffffffffffffffffffffffffffffffff1916600160a060020a0390921691909117905560608301518051610d049260038501920190611647565b506080820151600482015560a0820151600582015560c082015160068201805460ff19166001836007811115610d3657fe5b02179055505050600160a060020a03841660008181526003602090815260408083206006805482546001818101855593875285872001559484526004835292819020805460ff19169093179092559154815190815290517f7e82078c35b6665b9d320ebeaa6c266960fad5b802c5558cf7df60c4769af95b929181900390910190a150506006805460018101909155949350505050565b600154600090600160a060020a0316338114610e21576040805160e560020a62461bcd02815260206004820152600d6024820152600080516020611700833981519152604482015290519081900360640190fd5b60018054600160a060020a03851673ffffffffffffffffffffffffffffffffffffffff19909116178155915050919050565b600154600160a060020a031681565b60075481565b600081600260008281526005602052604090206006015460ff166007811115610e8d57fe5b14610ee2576040805160e560020a62461bcd02815260206004820152601260248201527f436865636b204974656d20534849505045440000000000000000000000000000604482015290519081900360640190fd5b600083815260056020526040902060020154600160a060020a0316338114610f42576040805160e560020a62461bcd02815260206004820152600d6024820152600080516020611700833981519152604482015290519081900360640190fd5b60008481526005602090815260409182902060068101805460ff19166003179055825187815292519095507fa8142743f8f70a4c26f3691cf4ed59718381fb2f18070ec52be1f1022d8555579281900390910190a150505050565b80600760008281526005602052604090206006015460ff166007811115610fc057fe5b1415611004576040805160e560020a62461bcd02815260206004820152601360248201526000805160206116e0833981519152604482015290519081900360640190fd5b600082815260056020819052604090912001548290421061106f576040805160e560020a62461bcd02815260206004820152601960248201527f436865636b204245464f52452074696d65206578706972657300000000000000604482015290519081900360640190fd5b600083815260056020526040902060020154600160a060020a03163381146110cf576040805160e560020a62461bcd02815260206004820152600d6024820152600080516020611700833981519152604482015290519081900360640190fd5b600084815260056020908152604091829020600601805460ff19166004179055815186815291517f2e1897b0591d764356194f7a795238a87c1987c7a877568e50d829d547c92b979281900390910190a150505050565b600560209081526000918252604091829020805460018083015460028085015460038601805489516101009682161596909602600019011692909204601f810188900488028501880190985287845293969195600160a060020a0390941694939091908301828280156111da5780601f106111af576101008083540402835291602001916111da565b820191906000526020600020905b8154815290600101906020018083116111bd57829003601f168201915b50505050600483015460058401546006909401549293909290915060ff1687565b600081815260056020526040812060020154600160a060020a031633811461125b576040805160e560020a62461bcd02815260206004820152600d6024820152600080516020611700833981519152604482015290519081900360640190fd5b82600560008281526005602052604090206006015460ff16600781111561127e57fe5b146112d3576040805160e560020a62461bcd02815260206004820152601360248201527f436865636b204974656d20415050524f56454400000000000000000000000000604482015290519081900360640190fd5b60008481526005602052604080822060068101805460ff191660071790556001810154915190955033926108fc831502929190818181858888f19350505050158015610a12573d6000803e3d6000fd5b600254600160a060020a031681565b600154600090600160a060020a0316338114611386576040805160e560020a62461bcd02815260206004820152600d6024820152600080516020611700833981519152604482015290519081900360640190fd5b83600760008281526005602052604090206006015460ff1660078111156113a957fe5b14156113ed576040805160e560020a62461bcd02815260206004820152601360248201526000805160206116e0833981519152604482015290519081900360640190fd5b60008581526005602052604090206002810154909350600160a060020a038581169116141561142a5760068301805460ff19166005179055610a12565b600054600160a060020a0385811691161415610a125750506006908101805460ff191690911790555050565b600081600160008281526005602052604090206006015460ff16600781111561147b57fe5b146114d0576040805160e560020a62461bcd02815260206004820152601660248201527f436865636b204974656d2044656c69766572496e666f00000000000000000000604482015290519081900360640190fd5b600054600160a060020a03163314611532576040805160e560020a62461bcd02815260206004820152601060248201527f436865636b206973204d414e4147455200000000000000000000000000000000604482015290519081900360640190fd5b6040805184815290517ff00b9a5725b80c54016f42114f6ed7792d22eecb116011c4afac29c57bef6c959181900360200190a150506000908152600560208190526040909120600754420191810191909155600601805460ff19166002179055565b336000908152600360209081526040918290208054835181840281018401909452808452606093928301828280156115eb57602002820191906000526020600020905b8154815260200190600101908083116115d7575b505050505090505b90565b60e06040519081016040528060008152602001600081526020016000600160a060020a031681526020016060815260200160008152602001600081526020016000600781111561164257fe5b905290565b828054600181600116156101000203166002900490600052602060002090601f016020900481019282601f1061168857805160ff19168380011785556116b5565b828001600101855582156116b5579182015b828111156116b557825182559160200191906001019061169a565b506116c19291506116c5565b5090565b6115f391905b808211156116c157600081556001016116cb5600436865636b204974656d20434f4d504c45544500000000000000000000000000436865636b204144445245535300000000000000000000000000000000000000a165627a7a723058201298bc9b81313c0899ffa86235bbb7b5924c2320c2b9e28c7462e9dbee1837210029",
  "source": "pragma solidity ^0.4.17;\r\n\r\ncontract Orders {\r\n\r\n    address public manager;\r\n    address public factoryAddress;\r\n    address public storeAddress;\r\n   \r\n    struct Order {\r\n        uint itemId;\r\n        uint price;\r\n        address buyer;\r\n        string deliver;\r\n        uint quantity;\r\n        uint date;\r\n        State state;\r\n    }\r\n\r\n    mapping(address => uint[]) buyersOrders;\r\n    mapping(address => bool) public buyerList;\r\n   \r\n    enum State {Sold,DeliveryAddress,Shipped,Received,Refund,Approved,Rejected,Complete}\r\n\r\n    mapping(uint => Order) public orders;\r\n    uint public orderCount;\r\n    uint public refundTime;\r\n   \r\n\r\n    /* Event item stages */\r\n    event Sold(uint sku);\r\n    event Shipped(uint sku);\r\n    event Received(uint sku);\r\n    event Refund(uint sku);\r\n    event Approved(uint sku);\r\n    event OrderCreated(uint sku);\r\n\r\n    /* Sale timming check */\r\n    modifier onlyBefore(uint _orderId) {require(block.timestamp < orders[_orderId].date,\"Check BEFORE time expires\"); _;}\r\n    modifier onlyAfter(uint _orderId) {require(block.timestamp > orders[_orderId].date,\"Check AFTER time expires\"); _;}\r\n\r\n    /* Sale status checks */\r\n    modifier sold (uint _orderId) {require(orders[_orderId].state == State.Sold,\"Check Item SOLD\"); _;}\r\n    modifier deliverInfo (uint _orderId) {require(orders[_orderId].state == State.DeliveryAddress,\"Check Item DeliverInfo\"); _;}\r\n    modifier shipped (uint _orderId) {require(orders[_orderId].state == State.Shipped,\"Check Item SHIPPED\"); _;}\r\n    modifier received (uint _orderId) {require(orders[_orderId].state == State.Received,\"Check Item RECEIVED\"); _;}\r\n    modifier notComplete(uint _orderId) {require(orders[_orderId].state != State.Complete,\"Check Item COMPLETE\");_;}\r\n    modifier approvedRefund(uint _orderId) {require(orders[_orderId].state == State.Approved,\"Check Item APPROVED\");_;}\r\n\r\n    /* Transaction user checks */\r\n    modifier restricted() {require(msg.sender == manager,\"Check is MANAGER\"); _;}\r\n    modifier verifyCaller (address _address) {require (msg.sender == _address,\"Check ADDRESS\"); _;}\r\n    modifier verifyManagerOrBuyer (address _address) {\r\n        require (msg.sender == _address || msg.sender == manager,\"Check Manager or Buyers\");\r\n        _;\r\n    }\r\n\r\n\r\n    constructor(address _manager,uint _refundTime,address _storeAddress) public {\r\n        manager = _manager;\r\n        factoryAddress = msg.sender;\r\n        storeAddress = _storeAddress;\r\n        refundTime = _refundTime;\r\n        orderCount = 0;\r\n    }\r\n\r\n    function() public payable {\r\n    }\r\n   \r\n    /* ->>>>>>>>>>>>>>>>>>>>>>>>>>>>> */\r\n    /*  Store related tasks           */\r\n    /* ->>>>>>>>>>>>>>>>>>>>>>>>>>>>> */ \r\n    function createOrder(uint _itemId,uint _price, address _buyer, uint _quantity)\r\n      public\r\n      verifyCaller(storeAddress) \r\n      returns (uint orderId)\r\n    {\r\n        orders[orderCount] = Order({\r\n            itemId:_itemId,\r\n            price:_price,\r\n            buyer:_buyer,\r\n            deliver:\"\",\r\n            quantity:_quantity,\r\n            date:block.timestamp,\r\n            state:State.Sold\r\n            });\r\n\r\n        buyersOrders[_buyer].push(orderCount);\r\n        buyerList[_buyer] = true;\r\n        emit OrderCreated(orderCount);\r\n        orderCount++;\r\n        return(orderCount-1);\r\n    }\r\n\r\n    /* ->>>>>>>>>>>>>>>>>>>>>>>>>>>>> */\r\n    /*  Buyer relates tasks           */\r\n    /* ->>>>>>>>>>>>>>>>>>>>>>>>>>>>> */\r\n\r\n    /* Change the state of the item to received and call event! */\r\n    function updateAddress(uint _orderId,string _deliver) public\r\n        sold(_orderId)\r\n        verifyCaller(orders[_orderId].buyer)\r\n    {\r\n        Order storage order = orders[_orderId];\r\n        order.deliver = _deliver;\r\n        order.state = State.DeliveryAddress;\r\n        emit Received(_orderId); \r\n    }\r\n\r\n    function receiveItem(uint _orderId) public\r\n        shipped(_orderId)\r\n        verifyCaller(orders[_orderId].buyer)\r\n    {\r\n        Order storage order = orders[_orderId];\r\n        order.state = State.Received;\r\n        emit Received(_orderId); \r\n    }\r\n\r\n    function requestRefund(uint _orderId) public\r\n        notComplete(_orderId)\r\n        onlyBefore(_orderId) \r\n        verifyCaller(orders[_orderId].buyer)\r\n    {\r\n        orders[_orderId].state = State.Refund;\r\n        emit Refund(_orderId);\r\n    }\r\n \r\n    function buyerWithdraws(uint _orderId) public payable \r\n        verifyCaller(orders[_orderId].buyer)\r\n        approvedRefund(_orderId)\r\n    {\r\n        Order storage order = orders[_orderId];\r\n        order.state = State.Complete;\r\n        msg.sender.transfer(order.price);\r\n    }\r\n\r\n    function getOrdersList() public view returns (uint[]) {\r\n        return buyersOrders[msg.sender];\r\n    }\r\n\r\n    function fetchOrder(uint _orderId) public view\r\n       verifyManagerOrBuyer(orders[_orderId].buyer)\r\n       returns (\r\n           uint orderId, \r\n           uint item, \r\n           uint price,\r\n           string deliver,\r\n           uint quantity,\r\n           uint date,\r\n           State state\r\n        ) \r\n    {\r\n        Order memory order = orders[_orderId];\r\n        item = order.itemId;\r\n        price = order.price;\r\n        deliver = order.deliver;          \r\n        quantity = order.quantity;\r\n        date = order.date;\r\n        state = order.state;\r\n        return (_orderId,item,price,deliver,quantity,date,state);\r\n    }\r\n\r\n    /* ->>>>>>>>>>>>>>>>>>>>>>>>>>>>> */\r\n    /*   Seller related tasks         */\r\n    /* ->>>>>>>>>>>>>>>>>>>>>>>>>>>>> */\r\n   \r\n   \r\n    /*  Change the state of the item to shipped and call event!*/\r\n    function shipItem(uint _orderId) \r\n        public\r\n        deliverInfo(_orderId)\r\n        restricted\r\n    {\r\n        emit Shipped(_orderId);\r\n        Order storage order = orders[_orderId];\r\n        order.date = block.timestamp + refundTime;\r\n        order.state = State.Shipped;\r\n    }\r\n\r\n    function approveRefund (uint _orderId)\r\n        public\r\n        restricted\r\n        notComplete(_orderId)\r\n    { \r\n        Order storage order = orders[_orderId];\r\n        order.state = State.Approved;\r\n        emit Approved(_orderId);\r\n    }\r\n\r\n    function managerGetPaid(uint _orderId) public payable \r\n        restricted\r\n        onlyAfter(_orderId)\r\n        notComplete(_orderId)\r\n    {\r\n        Order storage order = orders[_orderId];\r\n        require(order.state != State.Refund || order.state != State.Approved,\"Check REFUND\");\r\n        order.state = State.Complete;\r\n        manager.transfer(order.price);\r\n    }\r\n\r\n    /* ->>>>>>>>>>>>>>>>>>>>>>>>>>>>> */\r\n    /* Factory Admin Functions        */ \r\n    /* ->>>>>>>>>>>>>>>>>>>>>>>>>>>>> */\r\n\r\n    function adminResolvesDispute(uint _orderId, address _winner) \r\n       public\r\n       verifyCaller(factoryAddress) \r\n       notComplete(_orderId)\r\n    {  \r\n        Order storage order = orders[_orderId];\r\n        if(order.buyer == _winner ){\r\n            order.state = State.Approved;\r\n        } else if (manager == _winner ) {\r\n            order.state = State.Rejected;\r\n        }\r\n    }\r\n\r\n    function setStoreAddress(address _storeAddress)\r\n        public \r\n        verifyCaller(factoryAddress)\r\n        returns (bool)\r\n    {\r\n        storeAddress = _storeAddress;\r\n        return(true);\r\n    }\r\n\r\n    function setFactoryAddress(address _factoryAddress)\r\n        public \r\n        verifyCaller(factoryAddress)\r\n        returns (bool)\r\n    {\r\n        factoryAddress = _factoryAddress;\r\n        return(true);\r\n    }\r\n}",
  "sourcePath": "/home/beast/marketplace/contracts/Orders.sol",
  "compiler": {
    "name": "solc",
    "version": "0.4.24+commit.e67f0147.Emscripten.clang"
  },
  "schemaVersion": "2.0.0",
  "updatedAt": "2018-08-23T15:36:43.780Z"
}