{
  "contractName": "Store",
  "abi": [
    {
      "constant": true,
      "inputs": [],
      "name": "skuCount",
      "outputs": [
        {
          "name": "",
          "type": "uint256"
        }
      ],
      "payable": false,
      "stateMutability": "view",
      "type": "function"
    },
    {
      "constant": true,
      "inputs": [],
      "name": "manager",
      "outputs": [
        {
          "name": "",
          "type": "address"
        }
      ],
      "payable": false,
      "stateMutability": "view",
      "type": "function"
    },
    {
      "constant": true,
      "inputs": [],
      "name": "orderAddress",
      "outputs": [
        {
          "name": "",
          "type": "address"
        }
      ],
      "payable": false,
      "stateMutability": "view",
      "type": "function"
    },
    {
      "constant": true,
      "inputs": [],
      "name": "storeName",
      "outputs": [
        {
          "name": "",
          "type": "string"
        }
      ],
      "payable": false,
      "stateMutability": "view",
      "type": "function"
    },
    {
      "constant": true,
      "inputs": [],
      "name": "auction",
      "outputs": [
        {
          "name": "",
          "type": "address"
        }
      ],
      "payable": false,
      "stateMutability": "view",
      "type": "function"
    },
    {
      "constant": true,
      "inputs": [],
      "name": "factoryAddress",
      "outputs": [
        {
          "name": "",
          "type": "address"
        }
      ],
      "payable": false,
      "stateMutability": "view",
      "type": "function"
    },
    {
      "constant": true,
      "inputs": [
        {
          "name": "",
          "type": "uint256"
        }
      ],
      "name": "items",
      "outputs": [
        {
          "name": "sku",
          "type": "uint256"
        },
        {
          "name": "ipfsHash",
          "type": "string"
        },
        {
          "name": "name",
          "type": "string"
        },
        {
          "name": "description",
          "type": "string"
        },
        {
          "name": "price",
          "type": "uint256"
        },
        {
          "name": "seller",
          "type": "address"
        },
        {
          "name": "auction",
          "type": "address"
        },
        {
          "name": "inventory",
          "type": "uint256"
        }
      ],
      "payable": false,
      "stateMutability": "view",
      "type": "function"
    },
    {
      "constant": true,
      "inputs": [
        {
          "name": "",
          "type": "address"
        }
      ],
      "name": "auctionlist",
      "outputs": [
        {
          "name": "",
          "type": "uint256"
        }
      ],
      "payable": false,
      "stateMutability": "view",
      "type": "function"
    },
    {
      "inputs": [
        {
          "name": "_storeName",
          "type": "string"
        },
        {
          "name": "_manager",
          "type": "address"
        }
      ],
      "payable": false,
      "stateMutability": "nonpayable",
      "type": "constructor"
    },
    {
      "anonymous": false,
      "inputs": [
        {
          "indexed": false,
          "name": "sku",
          "type": "uint256"
        }
      ],
      "name": "ForSale",
      "type": "event"
    },
    {
      "anonymous": false,
      "inputs": [
        {
          "indexed": false,
          "name": "sku",
          "type": "uint256"
        }
      ],
      "name": "Sold",
      "type": "event"
    },
    {
      "constant": false,
      "inputs": [
        {
          "name": "_name",
          "type": "string"
        },
        {
          "name": "_ipfsHash",
          "type": "string"
        },
        {
          "name": "_description",
          "type": "string"
        },
        {
          "name": "_price",
          "type": "uint256"
        },
        {
          "name": "_inventory",
          "type": "uint256"
        },
        {
          "name": "_auction",
          "type": "bool"
        },
        {
          "name": "_time",
          "type": "uint256"
        }
      ],
      "name": "addItem",
      "outputs": [],
      "payable": false,
      "stateMutability": "nonpayable",
      "type": "function"
    },
    {
      "constant": false,
      "inputs": [
        {
          "name": "_sku",
          "type": "uint256"
        },
        {
          "name": "_name",
          "type": "string"
        },
        {
          "name": "_ipfsHash",
          "type": "string"
        },
        {
          "name": "_description",
          "type": "string"
        },
        {
          "name": "_price",
          "type": "uint256"
        },
        {
          "name": "_inventory",
          "type": "uint256"
        },
        {
          "name": "_auction",
          "type": "address"
        }
      ],
      "name": "updateItem",
      "outputs": [
        {
          "name": "",
          "type": "bool"
        }
      ],
      "payable": false,
      "stateMutability": "nonpayable",
      "type": "function"
    },
    {
      "constant": false,
      "inputs": [
        {
          "name": "_sku",
          "type": "uint256"
        },
        {
          "name": "_quantity",
          "type": "uint256"
        }
      ],
      "name": "buyItem",
      "outputs": [],
      "payable": true,
      "stateMutability": "payable",
      "type": "function"
    },
    {
      "constant": false,
      "inputs": [
        {
          "name": "_sku",
          "type": "uint256"
        },
        {
          "name": "_price",
          "type": "uint256"
        },
        {
          "name": "_winner",
          "type": "address"
        }
      ],
      "name": "wonItem",
      "outputs": [],
      "payable": false,
      "stateMutability": "nonpayable",
      "type": "function"
    },
    {
      "constant": true,
      "inputs": [],
      "name": "getSummary",
      "outputs": [
        {
          "name": "",
          "type": "string"
        },
        {
          "name": "",
          "type": "uint256"
        },
        {
          "name": "",
          "type": "address"
        },
        {
          "name": "",
          "type": "uint256"
        },
        {
          "name": "",
          "type": "address"
        }
      ],
      "payable": false,
      "stateMutability": "view",
      "type": "function"
    },
    {
      "constant": true,
      "inputs": [
        {
          "name": "_sku",
          "type": "uint256"
        }
      ],
      "name": "fetchItem",
      "outputs": [
        {
          "name": "sku",
          "type": "uint256"
        },
        {
          "name": "name",
          "type": "string"
        },
        {
          "name": "ipfsHash",
          "type": "string"
        },
        {
          "name": "description",
          "type": "string"
        },
        {
          "name": "price",
          "type": "uint256"
        },
        {
          "name": "inventory",
          "type": "uint256"
        },
        {
          "name": "_auction",
          "type": "address"
        },
        {
          "name": "seller",
          "type": "address"
        }
      ],
      "payable": false,
      "stateMutability": "view",
      "type": "function"
    },
    {
      "constant": false,
      "inputs": [
        {
          "name": "_orderAddress",
          "type": "address"
        }
      ],
      "name": "setOrderAddress",
      "outputs": [
        {
          "name": "",
          "type": "bool"
        }
      ],
      "payable": false,
      "stateMutability": "nonpayable",
      "type": "function"
    },
    {
      "constant": false,
      "inputs": [
        {
          "name": "_factoryAddress",
          "type": "address"
        }
      ],
      "name": "setFactoryAddress",
      "outputs": [
        {
          "name": "",
          "type": "bool"
        }
      ],
      "payable": false,
      "stateMutability": "nonpayable",
      "type": "function"
    }
  ],
  "bytecode": "0x60806040523480156200001157600080fd5b50604051620021353803806200213583398101604052805160208083015160008054600160a060020a031916600160a060020a0383161790559190920180519092620000639160069185019062000083565b505060018054600160a060020a0319163317905550600060035562000128565b828054600181600116156101000203166002900490600052602060002090601f016020900481019282601f10620000c657805160ff1916838001178555620000f6565b82800160010185558215620000f6579182015b82811115620000f6578251825591602001919060010190620000d9565b506200010492915062000108565b5090565b6200012591905b808211156200010457600081556001016200010f565b90565b611ffd80620001386000396000f3006080604052600436106100e55763ffffffff7c01000000000000000000000000000000000000000000000000000000006000350416630441917e81146100ea57806322702473146101ee57806336bb3a7e146102155780634051ddac1461023e57806345c844861461030b578063481c6a751461032c5780634f5843421461035d578063521936e6146103725780637d9f6db5146103fc57806383c17c55146104115780638487deed14610432578063966dae0e1461051b5780639979c00914610530578063ad4b9cfb1461053e578063bfb231d2146106e1578063c4dd7e4e1461077f575b600080fd5b3480156100f657600080fd5b5060408051602060046024803582810135601f81018590048502860185019096528585526101da95833595369560449491939091019190819084018382808284375050604080516020601f89358b018035918201839004830284018301909452808352979a99988101979196509182019450925082915084018382808284375050604080516020601f89358b018035918201839004830284018301909452808352979a9998810197919650918201945092508291508401838280828437509497505084359550505060208301359260400135600160a060020a031691506107a09050565b604080519115158252519081900360200190f35b3480156101fa57600080fd5b506102036108a3565b60408051918252519081900360200190f35b34801561022157600080fd5b5061023c600435602435600160a060020a03604435166108a9565b005b34801561024a57600080fd5b50610253610a29565b604051808060200186815260200185600160a060020a0316600160a060020a0316815260200184815260200183600160a060020a0316600160a060020a03168152602001828103825287818151815260200191508051906020019080838360005b838110156102cc5781810151838201526020016102b4565b50505050905090810190601f1680156102f95780820380516001836020036101000a031916815260200191505b50965050505050505060405180910390f35b34801561031757600080fd5b506101da600160a060020a0360043516610af1565b34801561033857600080fd5b50610341610b8b565b60408051600160a060020a039092168252519081900360200190f35b34801561036957600080fd5b50610341610b9a565b34801561037e57600080fd5b50610387610ba9565b6040805160208082528351818301528351919283929083019185019080838360005b838110156103c15781810151838201526020016103a9565b50505050905090810190601f1680156103ee5780820380516001836020036101000a031916815260200191505b509250505060405180910390f35b34801561040857600080fd5b50610341610c37565b34801561041d57600080fd5b506101da600160a060020a0360043516610c46565b34801561043e57600080fd5b506040805160206004803580820135601f810184900484028501840190955284845261023c94369492936024939284019190819084018382808284375050604080516020601f89358b018035918201839004830284018301909452808352979a99988101979196509182019450925082915084018382808284375050604080516020601f89358b018035918201839004830284018301909452808352979a99988101979196509182019450925082915084018382808284375094975050843595505050602083013592604081013515159250606001359050610cde565b34801561052757600080fd5b5061034161107d565b61023c60043560243561108c565b34801561054a57600080fd5b50610556600435611410565b6040518089815260200180602001806020018060200188815260200187815260200186600160a060020a0316600160a060020a0316815260200185600160a060020a0316600160a060020a0316815260200184810384528b818151815260200191508051906020019080838360005b838110156105dd5781810151838201526020016105c5565b50505050905090810190601f16801561060a5780820380516001836020036101000a031916815260200191505b5084810383528a5181528a516020918201918c019080838360005b8381101561063d578181015183820152602001610625565b50505050905090810190601f16801561066a5780820380516001836020036101000a031916815260200191505b5084810382528951815289516020918201918b019080838360005b8381101561069d578181015183820152602001610685565b50505050905090810190601f1680156106ca5780820380516001836020036101000a031916815260200191505b509b50505050505050505050505060405180910390f35b3480156106ed57600080fd5b506106f960043561162a565b6040518089815260200180602001806020018060200188815260200187600160a060020a0316600160a060020a0316815260200186600160a060020a0316600160a060020a0316815260200185815260200184810384528b81815181526020019150805190602001908083836000838110156105dd5781810151838201526020016105c5565b34801561078b57600080fd5b50610203600160a060020a0360043516611819565b600080548190600160a060020a03163314610805576040805160e560020a62461bcd02815260206004820152600d60248201527f436865636b204d414e4147455200000000000000000000000000000000000000604482015290519081900360640190fd5b5060008881526007602090815260409091208851909161082c9160028401918b0190611875565b50865161084290600183019060208a0190611875565b5085516108589060038301906020890190611875565b506004810185905560078101849055600681018054600160a060020a03851673ffffffffffffffffffffffffffffffffffffffff199091161790556001915050979650505050505050565b60035481565b33600081815260056020526040812054909185918214610913576040805160e560020a62461bcd02815260206004820152601460248201527f436865636b206163746976652041554354494f4e000000000000000000000000604482015290519081900360640190fd5b60008681526007602081815260408084206002549381015482517f830b7d70000000000000000000000000000000000000000000000000000000008152600481018d9052602481018c9052600160a060020a038b81166044830152606482019290925292519198509093169363830b7d7093608480840194939192918390030190829087803b1580156109a557600080fd5b505af11580156109b9573d6000803e3d6000fd5b505050506040513d60208110156109cf57600080fd5b505060006007840181905533815260056020908152604080832092909255600354825190815291517f92f64ca637d023f354075a4be751b169c1a8a9ccb6d33cdd0cb35205439957279281900390910190a1505050505050565b6002805460035460008054600680546040805160206101006001851615026000190190931698909804601f81018390048302890183019091528088526060979496879687968796600160a060020a0393841680319690959394909116928791830182828015610ad95780601f10610aae57610100808354040283529160200191610ad9565b820191906000526020600020905b815481529060010190602001808311610abc57829003601f168201915b50505050509450945094509450945094509091929394565b600154600090600160a060020a0316338114610b57576040805160e560020a62461bcd02815260206004820152600d60248201527f436865636b204144445245535300000000000000000000000000000000000000604482015290519081900360640190fd5b60028054600160a060020a03851673ffffffffffffffffffffffffffffffffffffffff199091161790556001915050919050565b600054600160a060020a031681565b600254600160a060020a031681565b6006805460408051602060026001851615610100026000190190941693909304601f81018490048402820184019092528181529291830182828015610c2f5780601f10610c0457610100808354040283529160200191610c2f565b820191906000526020600020905b815481529060010190602001808311610c1257829003601f168201915b505050505081565b600454600160a060020a031681565b600154600090600160a060020a0316338114610cac576040805160e560020a62461bcd02815260206004820152600d60248201527f436865636b204144445245535300000000000000000000000000000000000000604482015290519081900360640190fd5b60018054600160a060020a03851673ffffffffffffffffffffffffffffffffffffffff19909116178155915050919050565b600054600160a060020a03163314610d40576040805160e560020a62461bcd02815260206004820152600d60248201527f436865636b204d414e4147455200000000000000000000000000000000000000604482015290519081900360640190fd5b8115610f2c576002546003548291600160a060020a03169086610d616118f3565b938452600160a060020a03909216602084015260408084019190915260608301919091525190819003608001906000f080158015610da3573d6000803e3d6000fd5b506004805473ffffffffffffffffffffffffffffffffffffffff1916600160a060020a0392831617908190556003549116600090815260056020908152604091829020839055815192835290517fa96ae0fc3224ebd79eebfe54bd130cc9cb94416cddd1f2386115e00b725324689281900390910190a1604080516101008101825260035480825260208083018a81528385018c9052606084018a90526080840189905260008054600160a060020a0390811660a08701526004541660c086015260e0850189905292835260078252939091208251815592518051929392610e919260018501920190611875565b5060408201518051610ead916002840191602090910190611875565b5060608201518051610ec9916003840191602090910190611875565b506080820151600482015560a0820151600582018054600160a060020a0392831673ffffffffffffffffffffffffffffffffffffffff199182161790915560c084015160068401805491909316911617905560e09091015160079091015561106b565b60035460408051918252517fa96ae0fc3224ebd79eebfe54bd130cc9cb94416cddd1f2386115e00b725324689181900360200190a1604080516101008101825260035480825260208083018a81528385018c9052606084018a90526080840189905260008054600160a060020a031660a086015260c0850181905260e0850189905292835260078252939091208251815592518051929392610fd49260018501920190611875565b5060408201518051610ff0916002840191602090910190611875565b506060820151805161100c916003840191602090910190611875565b506080820151600482015560a0820151600582018054600160a060020a0392831673ffffffffffffffffffffffffffffffffffffffff199182161790915560c084015160068401805491909316911617905560e0909101516007909101555b50506003805460010190555050505050565b600154600160a060020a031681565b6000828152600760208190526040822001548190849084908111156110fb576040805160e560020a62461bcd02815260206004820152601160248201527f436865636b20415641494c4942494c5459000000000000000000000000000000604482015290519081900360640190fd5b6000868152600760205260409020600601548690600160a060020a03161561116d576040805160e560020a62461bcd02815260206004820152600c60248201527f41756374696f6e204f6e6c790000000000000000000000000000000000000000604482015290519081900360640190fd5b60008781526007602052604090206004015461118f908763ffffffff61182b16565b348111156111e7576040805160e560020a62461bcd02815260206004820152600b60248201527f436865636b2056414c5545000000000000000000000000000000000000000000604482015290519081900360640190fd5b60008881526007602052604081206004810154909750899189918190611213908463ffffffff61182b16565b98503331891061126d576040805160e560020a62461bcd02815260206004820152601760248201527f427579204974656d3a20436865636b2042414c414e4345000000000000000000604482015290519081900360640190fd5b60078a0154611282908c63ffffffff61186116565b60078b0155600254604080517f830b7d70000000000000000000000000000000000000000000000000000000008152600481018f9052602481018c9052336044820152606481018e90529051600160a060020a039092169163830b7d70916084808201926020929091908290030181600087803b15801561130257600080fd5b505af1158015611316573d6000803e3d6000fd5b505050506040513d602081101561132c57600080fd5b5050600254604051600160a060020a03909116908a156108fc02908b906000818181858888f19350505050158015611368573d6000803e3d6000fd5b50604080513031815290517f92f64ca637d023f354075a4be751b169c1a8a9ccb6d33cdd0cb35205439957279181900360200190a160008481526007602052604090206004015491506113d16113c4838563ffffffff61182b16565b349063ffffffff61186116565b604051909150339082156108fc029083906000818181858888f19350505050158015611401573d6000803e3d6000fd5b50505050505050505050505050565b600081815260076020908152604080832080546002808301805485516001821615610100026000190190911692909204601f810187900487028301870190955284825291956060958695869592948594859485949093919291908301828280156114bb5780601f10611490576101008083540402835291602001916114bb565b820191906000526020600020905b81548152906001019060200180831161149e57829003601f168201915b50505050509750806001018054600181600116156101000203166002900480601f01602080910402602001604051908101604052809291908181526020018280546001816001161561010002031660029004801561155a5780601f1061152f5761010080835404028352916020019161155a565b820191906000526020600020905b81548152906001019060200180831161153d57829003601f168201915b5050505060038301805460408051602060026001851615610100026000190190941693909304601f8101849004840282018401909252818152949b509192508301828280156115ea5780601f106115bf576101008083540402835291602001916115ea565b820191906000526020600020905b8154815290600101906020018083116115cd57829003601f168201915b5050506004840154600585015460068601546007870154959b50919950939750600160a060020a0390811696509092169350505050919395975091939597565b6007602090815260009182526040918290208054600180830180548651600293821615610100026000190190911692909204601f8101869004860283018601909652858252919492939092908301828280156116c75780601f1061169c576101008083540402835291602001916116c7565b820191906000526020600020905b8154815290600101906020018083116116aa57829003601f168201915b50505060028085018054604080516020601f60001961010060018716150201909416959095049283018590048502810185019091528181529596959450909250908301828280156117595780601f1061172e57610100808354040283529160200191611759565b820191906000526020600020905b81548152906001019060200180831161173c57829003601f168201915b5050505060038301805460408051602060026001851615610100026000190190941693909304601f81018490048402820184019092528181529495949350908301828280156117e95780601f106117be576101008083540402835291602001916117e9565b820191906000526020600020905b8154815290600101906020018083116117cc57829003601f168201915b50505060048401546005850154600686015460079096015494959194600160a060020a0391821694509116915088565b60056020526000908152604090205481565b60008083151561183e576000915061185a565b5082820282848281151561184e57fe5b041461185657fe5b8091505b5092915050565b6000808383111561186e57fe5b5050900390565b828054600181600116156101000203166002900490600052602060002090601f016020900481019282601f106118b657805160ff19168380011785556118e3565b828001600101855582156118e3579182015b828111156118e35782518255916020019190600101906118c8565b506118ef929150611903565b5090565b6040516106b18061192183390190565b61191d91905b808211156118ef5760008155600101611909565b905600608060405234801561001057600080fd5b506040516080806106b1833981016040908152815160208301519183015160609093015160038054600160a060020a03909416600160a060020a0319948516179055600093909355420160045560029190915560018054909116331790556106348061007d6000396000f3006080604052600436106100985763ffffffff7c01000000000000000000000000000000000000000000000000000000006000350416631998aeef811461009d5780632a24f46c146100a757806338af3eed146100bc5780633ccfd60b146100ed5780634462f40c1461011657806361c7628b1461013d57806391f9015714610152578063975057e714610167578063d57bde791461017c575b600080fd5b6100a5610191565b005b3480156100b357600080fd5b506100a56102d6565b3480156100c857600080fd5b506100d161055f565b60408051600160a060020a039092168252519081900360200190f35b3480156100f957600080fd5b5061010261056e565b604080519115158252519081900360200190f35b34801561012257600080fd5b5061012b6105d8565b60408051918252519081900360200190f35b34801561014957600080fd5b5061012b6105de565b34801561015e57600080fd5b506100d16105e4565b34801561017357600080fd5b506100d16105f3565b34801561018857600080fd5b5061012b610602565b6004544211156101eb576040805160e560020a62461bcd02815260206004820152601660248201527f41756374696f6e20616c726561647920656e6465642e00000000000000000000604482015290519081900360640190fd5b6006543411610244576040805160e560020a62461bcd02815260206004820152601e60248201527f546865726520616c7265616479206973206120686967686572206269642e0000604482015290519081900360640190fd5b6006541561027157600654600554600160a060020a03166000908152600760205260409020805490910190555b6005805473ffffffffffffffffffffffffffffffffffffffff19163390811790915534600681905560408051928352602083019190915280517ff4757a49b326036464bec6fe419a4ae38c8a02ce3e68bf0809674f6aab8ad3009281900390910190a1565b600454421015610330576040805160e560020a62461bcd02815260206004820152601660248201527f41756374696f6e206e6f742079657420656e6465642e00000000000000000000604482015290519081900360640190fd5b60085460ff16156103b1576040805160e560020a62461bcd02815260206004820152602360248201527f61756374696f6e456e642068617320616c7265616479206265656e2063616c6c60448201527f65642e0000000000000000000000000000000000000000000000000000000000606482015290519081900360840190fd5b6006546002541115610433576040805160e560020a62461bcd02815260206004820152602860248201527f61756374696f6e456e6420446964206e6f7420657863656564206d696e696d7560448201527f6d2070726963652e000000000000000000000000000000000000000000000000606482015290519081900360840190fd5b6008805460ff1916600117905560055460065460408051600160a060020a039093168352602083019190915280517fdaec4582d5d9595688c8c98545fdd1c696d41c6aeaeb636737e84ed2f5c00eda9281900390910190a1600354600654604051600160a060020a039092169181156108fc0291906000818181858888f193505050501580156104c7573d6000803e3d6000fd5b5060015460008054600654600554604080517f36bb3a7e00000000000000000000000000000000000000000000000000000000815260048101949094526024840192909252600160a060020a03908116604484015290519316926336bb3a7e9260648084019391929182900301818387803b15801561054557600080fd5b505af1158015610559573d6000803e3d6000fd5b50505050565b600354600160a060020a031681565b33600090815260076020526040812054818111156105cf57336000818152600760205260408082208290555183156108fc0291849190818181858888f1935050505015156105cf5733600090815260076020526040812082905591506105d4565b600191505b5090565b60005481565b60045481565b600554600160a060020a031681565b600154600160a060020a031681565b600654815600a165627a7a72305820dd43dc2d4f8d020ef886f0f27917aee5648842f956d1b92ee7d6818f679b51230029a165627a7a72305820c6eb4f81b179d513023a653cd93d5f4c5ce5ae86004855be0b5968158067162f0029",
  "source": "pragma solidity ^0.4.17;\r\n\r\nimport \"./Auction.sol\";\r\nimport \"./Orders.sol\";\r\nimport \"./SafeMath.sol\";\r\n\r\ncontract Store {\r\n    \r\n    address public manager;\r\n    address public factoryAddress;\r\n    address public orderAddress;\r\n    using SafeMath for uint;  \r\n   \r\n    struct Item {\r\n        uint sku;\r\n        string ipfsHash;\r\n        string name;\r\n        string description;\r\n        uint price;\r\n        address seller;\r\n        address auction;\r\n        uint inventory;\r\n    }\r\n\r\n    uint public skuCount;\r\n    Auction public auction;\r\n    mapping(address => uint) public auctionlist;\r\n\r\n    string public storeName;\r\n    mapping(uint => Item) public items;\r\n\r\n    event ForSale(uint sku);\r\n    event Sold(uint sku);\r\n\r\n    modifier restricted() {require(msg.sender == manager,\"Check MANAGER\"); _;}\r\n    modifier verifyCaller (address _address) {require (msg.sender == _address,\"Check ADDRESS\"); _;}\r\n    modifier verifyAuction (uint _sku,address _address) {require (auctionlist[_address] == _sku,\"Check active AUCTION\"); _;}\r\n\r\n    modifier forSale (uint _sku,uint _quantity) {require(items[_sku].inventory >= _quantity,\"Check AVAILIBILTY\"); _;}\r\n    modifier paidEnough(uint _price) {require(msg.value >= _price,\"Check VALUE\"); _;}\r\n    modifier notAuction(uint _sku){require(items[_sku].auction==address(0x0),\"Auction Only\");_;}\r\n   \r\n    modifier checkValue(uint _sku,uint _quantity) {\r\n        _;\r\n        uint _price = items[_sku].price;\r\n        uint amountToRefund = msg.value.sub(_price.mul(_quantity));\r\n        msg.sender.transfer(amountToRefund);\r\n    }\r\n\r\n    constructor(string _storeName, address _manager) public {\r\n        manager = _manager;\r\n        storeName = _storeName;\r\n        factoryAddress = msg.sender;\r\n        skuCount = 0;\r\n    }\r\n\r\n    /* ->>>>>>>>>>>>>>>>>>>>>>>>>>>>> */\r\n    /* Managers only  Functions       */ \r\n    /* ->>>>>>>>>>>>>>>>>>>>>>>>>>>>> */\r\n    \r\n    function addItem(\r\n        string _name,\r\n        string _ipfsHash,\r\n        string _description,\r\n        uint _price,\r\n        uint _inventory,\r\n        bool _auction,\r\n        uint _time)\r\n        public \r\n        restricted\r\n    {\r\n        if(_auction){\r\n            auction = new Auction(_time,orderAddress,skuCount,_price);\r\n            auctionlist[auction] = skuCount;\r\n            emit ForSale(skuCount);\r\n\r\n            items[skuCount] = Item({\r\n                name: _name,\r\n                ipfsHash: _ipfsHash,\r\n                sku: skuCount,\r\n                description: _description,\r\n                price: _price,\r\n                seller: manager,\r\n                auction: auction,\r\n                inventory: _inventory\r\n                });\r\n        } else{\r\n            emit ForSale(skuCount);\r\n            items[skuCount] = Item({\r\n                name: _name,\r\n                ipfsHash: _ipfsHash,\r\n                sku: skuCount,\r\n                description: _description,\r\n                price: _price,\r\n                seller: manager,\r\n                auction:address(0x0),\r\n                inventory: _inventory\r\n                }); \r\n        }\r\n        skuCount++;\r\n    }\r\n\r\n    function updateItem(\r\n        uint _sku,\r\n        string _name,\r\n        string _ipfsHash,\r\n        string _description,\r\n        uint _price,\r\n        uint _inventory,\r\n        address _auction) \r\n    public restricted returns (bool) {\r\n        Item storage item = items[_sku];\r\n        item.name = _name;\r\n        item.ipfsHash = _ipfsHash;\r\n        item.description = _description;\r\n        item.price = _price;\r\n        item.inventory = _inventory;\r\n        item.auction = _auction;\r\n        return (true);\r\n    }\r\n     \r\n    /* ->>>>>>>>>>>>>>>>>>>>>>>>>>>>> */\r\n    /* Anyone Can run Functions       */ \r\n    /* ->>>>>>>>>>>>>>>>>>>>>>>>>>>>> */\r\n\r\n    function buyItem(uint _sku, uint _quantity)\r\n        public\r\n        payable\r\n        forSale(_sku, _quantity)\r\n        notAuction(_sku)\r\n        paidEnough(items[_sku].price.mul(_quantity))\r\n        checkValue(_sku,_quantity)\r\n    {\r\n        Item storage item = items[_sku];\r\n        uint total = item.price.mul(_quantity);\r\n        require(msg.sender.balance > (total),\"Buy Item: Check BALANCE\");\r\n        item.inventory = item.inventory.sub(_quantity);\r\n        Orders(orderAddress).createOrder(_sku, total,msg.sender, _quantity);\r\n        address(orderAddress).transfer(total);\r\n        emit Sold(address(this).balance);\r\n    }\r\n\r\n    function wonItem(uint _sku,uint _price,address _winner)\r\n        public\r\n        verifyAuction(_sku,msg.sender)\r\n    {\r\n        Item storage item = items[_sku];\r\n        Orders(orderAddress).createOrder(_sku,  _price,_winner,item.inventory);\r\n        item.inventory = 0;\r\n        delete auctionlist[msg.sender];\r\n        emit Sold(skuCount);\r\n    }\r\n\r\n    function getSummary() public view returns (\r\n        string,\r\n        uint,\r\n        address,\r\n        uint,\r\n        address)\r\n    {\r\n        return (\r\n            storeName,\r\n            address(orderAddress).balance,\r\n            orderAddress,\r\n            skuCount,\r\n            manager\r\n            );\r\n    }\r\n\r\n    function fetchItem(uint _sku) public view \r\n        returns (\r\n            uint sku,\r\n            string name,\r\n            string ipfsHash,\r\n            string description,\r\n            uint price,\r\n            uint inventory,\r\n            address _auction,\r\n            address seller\r\n        )\r\n    {\r\n        Item storage item = items[_sku];\r\n        sku = item.sku;\r\n        name = item.name;\r\n        ipfsHash = item.ipfsHash;\r\n        description = item.description;\r\n        price = item.price;\r\n        seller = item.seller;\r\n        _auction = item.auction;\r\n        inventory = item.inventory;\r\n        return (sku, name, ipfsHash, description, price, inventory, _auction, seller);\r\n    }\r\n \r\n    /* ->>>>>>>>>>>>>>>>>>>>>>>>>>>>> */\r\n    /* Factory Admin Functions        */ \r\n    /* ->>>>>>>>>>>>>>>>>>>>>>>>>>>>> */\r\n    \r\n    function setOrderAddress(address _orderAddress) public \r\n        verifyCaller(factoryAddress)\r\n        returns (bool)\r\n    {\r\n        orderAddress = _orderAddress;\r\n        return(true);\r\n    }\r\n  \r\n    function setFactoryAddress(address _factoryAddress) public \r\n        verifyCaller(factoryAddress)\r\n        returns (bool)\r\n    {\r\n        factoryAddress = _factoryAddress;\r\n        return(true);\r\n    }\r\n}\r\n",
  "sourcePath": "/home/beast/marketplace/contracts/Store.sol",
  "compiler": {
    "name": "solc",
    "version": "0.4.24+commit.e67f0147.Emscripten.clang"
  },
  "schemaVersion": "2.0.0",
  "updatedAt": "2018-08-23T15:36:43.771Z"
}